{
  "contractName": "SafeCDPFactory",
  "abi": [
    {
      "inputs": [
        {
          "name": "_tubAddr",
          "type": "address"
        },
        {
          "name": "_daiAddr",
          "type": "address"
        },
        {
          "name": "_sponsorPoolAddr",
          "type": "address"
        }
      ],
      "payable": false,
      "stateMutability": "nonpayable",
      "type": "constructor",
      "signature": "constructor"
    },
    {
      "constant": false,
      "inputs": [
        {
          "name": "_owner",
          "type": "address"
        },
        {
          "name": "_cup",
          "type": "bytes32"
        },
        {
          "name": "_targetCollateralization",
          "type": "uint256"
        },
        {
          "name": "_marginCallThreshold",
          "type": "uint256"
        },
        {
          "name": "_marginCallDuration",
          "type": "uint256"
        },
        {
          "name": "_rewardForKeeper",
          "type": "uint256"
        }
      ],
      "name": "createSafeCDP",
      "outputs": [
        {
          "name": "",
          "type": "address"
        }
      ],
      "payable": false,
      "stateMutability": "nonpayable",
      "type": "function",
      "signature": "0xb6e7e6a2"
    }
  ],
  "bytecode": "0x608060405234801561001057600080fd5b506040516060806125d983398101806040528101908080519060200190929190805190602001909291908051906020019092919050505082600360006101000a81548173ffffffffffffffffffffffffffffffffffffffff021916908373ffffffffffffffffffffffffffffffffffffffff16021790555081600460006101000a81548173ffffffffffffffffffffffffffffffffffffffff021916908373ffffffffffffffffffffffffffffffffffffffff16021790555080600560006101000a81548173ffffffffffffffffffffffffffffffffffffffff021916908373ffffffffffffffffffffffffffffffffffffffff1602179055505050506124bd8061011c6000396000f300608060405260043610610041576000357c0100000000000000000000000000000000000000000000000000000000900463ffffffff168063b6e7e6a214610046575b600080fd5b34801561005257600080fd5b506100bd600480360381019080803573ffffffffffffffffffffffffffffffffffffffff1690602001909291908035600019169060200190929190803590602001909291908035906020019092919080359060200190929190803590602001909291905050506100ff565b604051808273ffffffffffffffffffffffffffffffffffffffff1673ffffffffffffffffffffffffffffffffffffffff16815260200191505060405180910390f35b6000808733600360009054906101000a900473ffffffffffffffffffffffffffffffffffffffff16600460009054906101000a900473ffffffffffffffffffffffffffffffffffffffff16600560009054906101000a900473ffffffffffffffffffffffffffffffffffffffff168b8b8b8b8b61017a6103fc565b808b73ffffffffffffffffffffffffffffffffffffffff1673ffffffffffffffffffffffffffffffffffffffff1681526020018a73ffffffffffffffffffffffffffffffffffffffff1673ffffffffffffffffffffffffffffffffffffffff1681526020018973ffffffffffffffffffffffffffffffffffffffff1673ffffffffffffffffffffffffffffffffffffffff1681526020018873ffffffffffffffffffffffffffffffffffffffff1673ffffffffffffffffffffffffffffffffffffffff1681526020018773ffffffffffffffffffffffffffffffffffffffff1673ffffffffffffffffffffffffffffffffffffffff16815260200186600019166000191681526020018581526020018481526020018381526020018281526020019a5050505050505050505050604051809103906000f0801580156102c3573d6000803e3d6000fd5b5090506000803373ffffffffffffffffffffffffffffffffffffffff1673ffffffffffffffffffffffffffffffffffffffff1681526020019081526020016000208190806001815401808255809150509060018203906000526020600020016000909192909190916101000a81548173ffffffffffffffffffffffffffffffffffffffff021916908373ffffffffffffffffffffffffffffffffffffffff1602179055505060018060008373ffffffffffffffffffffffffffffffffffffffff1673ffffffffffffffffffffffffffffffffffffffff16815260200190815260200160002060006101000a81548160ff0219169083151502179055506002879080600181540180825580915050906001820390600052602060002001600090919290919091509060001916905550509695505050505050565b6040516120858061040d833901905600608060405234801561001057600080fd5b506040516101408061208583398101806040528101908080519060200190929190805190602001909291908051906020019092919080519060200190929190805190602001909291908051906020019092919080519060200190929190805190602001909291908051906020019092919080519060200190929190505050896000806101000a81548173ffffffffffffffffffffffffffffffffffffffff021916908373ffffffffffffffffffffffffffffffffffffffff16021790555088600160006101000a81548173ffffffffffffffffffffffffffffffffffffffff021916908373ffffffffffffffffffffffffffffffffffffffff16021790555087600260006101000a81548173ffffffffffffffffffffffffffffffffffffffff021916908373ffffffffffffffffffffffffffffffffffffffff16021790555086600360006101000a81548173ffffffffffffffffffffffffffffffffffffffff021916908373ffffffffffffffffffffffffffffffffffffffff16021790555085600460006101000a81548173ffffffffffffffffffffffffffffffffffffffff021916908373ffffffffffffffffffffffffffffffffffffffff16021790555084600581600019169055508360068190555082600781905550816008819055508060098190555050505050505050505050611e73806102126000396000f3006080604052600436106100a4576000357c0100000000000000000000000000000000000000000000000000000000900463ffffffff16806310de27b9146100a9578063186f0354146100ea57806321ea869d1461011957806329cb5aa4146101305780634ade244614610171578063741ec4211461019c57806395b1ce8a146101b3578063a7edfb87146101de578063adc3e6a5146101f5578063d75352e114610236575b600080fd5b3480156100b557600080fd5b506100d460048036038101908080359060200190929190505050610261565b6040518082815260200191505060405180910390f35b3480156100f657600080fd5b506100ff61028c565b604051808215151515815260200191505060405180910390f35b34801561012557600080fd5b5061012e61068c565b005b34801561013c57600080fd5b5061015b6004803603810190808035906020019092919050505061068e565b6040518082815260200191505060405180910390f35b34801561017d57600080fd5b506101866106c2565b6040518082815260200191505060405180910390f35b3480156101a857600080fd5b506101b1610ae4565b005b3480156101bf57600080fd5b506101c8610d90565b6040518082815260200191505060405180910390f35b3480156101ea57600080fd5b506101f3610e19565b005b34801561020157600080fd5b5061022060048036038101908080359060200190929190505050611429565b6040518082815260200191505060405180910390f35b34801561024257600080fd5b5061024b611515565b6040518082815260200191505060405180910390f35b6000670de0b6b3a76400006b033b2e3c9fd0803ce800000081151561028257fe5b0482029050919050565b600080600080610431600260009054906101000a900473ffffffffffffffffffffffffffffffffffffffff1673ffffffffffffffffffffffffffffffffffffffff166351f910666040518163ffffffff167c0100000000000000000000000000000000000000000000000000000000028152600401602060405180830381600087803b15801561031b57600080fd5b505af115801561032f573d6000803e3d6000fd5b505050506040513d602081101561034557600080fd5b8101908080519060200190929190505050600260009054906101000a900473ffffffffffffffffffffffffffffffffffffffff1673ffffffffffffffffffffffffffffffffffffffff16631f3634ed6005546040518263ffffffff167c0100000000000000000000000000000000000000000000000000000000028152600401808260001916600019168152602001915050602060405180830381600087803b1580156103f157600080fd5b505af1158015610405573d6000803e3d6000fd5b505050506040513d602081101561041b57600080fd5b8101908080519060200190929190505050611b32565b9250610670600260009054906101000a900473ffffffffffffffffffffffffffffffffffffffff1673ffffffffffffffffffffffffffffffffffffffff166367550a356040518163ffffffff167c0100000000000000000000000000000000000000000000000000000000028152600401602060405180830381600087803b1580156104bc57600080fd5b505af11580156104d0573d6000803e3d6000fd5b505050506040513d60208110156104e657600080fd5b810190808051906020019092919050505073ffffffffffffffffffffffffffffffffffffffff1663495d32cb6040518163ffffffff167c0100000000000000000000000000000000000000000000000000000000028152600401602060405180830381600087803b15801561055a57600080fd5b505af115801561056e573d6000803e3d6000fd5b505050506040513d602081101561058457600080fd5b8101908080519060200190929190505050600260009054906101000a900473ffffffffffffffffffffffffffffffffffffffff1673ffffffffffffffffffffffffffffffffffffffff1663f7c8d6346005546040518263ffffffff167c0100000000000000000000000000000000000000000000000000000000028152600401808260001916600019168152602001915050602060405180830381600087803b15801561063057600080fd5b505af1158015610644573d6000803e3d6000fd5b505050506040513d602081101561065a57600080fd5b8101908080519060200190929190505050611b32565b915061067e82600754611b32565b905080831015935050505090565b565b6000670de0b6b3a76400006b033b2e3c9fd0803ce80000008115156106af57fe5b04828115156106ba57fe5b049050919050565b600080600061090c600260009054906101000a900473ffffffffffffffffffffffffffffffffffffffff1673ffffffffffffffffffffffffffffffffffffffff166367550a356040518163ffffffff167c0100000000000000000000000000000000000000000000000000000000028152600401602060405180830381600087803b15801561075057600080fd5b505af1158015610764573d6000803e3d6000fd5b505050506040513d602081101561077a57600080fd5b810190808051906020019092919050505073ffffffffffffffffffffffffffffffffffffffff1663495d32cb6040518163ffffffff167c0100000000000000000000000000000000000000000000000000000000028152600401602060405180830381600087803b1580156107ee57600080fd5b505af1158015610802573d6000803e3d6000fd5b505050506040513d602081101561081857600080fd5b8101908080519060200190929190505050610907600260009054906101000a900473ffffffffffffffffffffffffffffffffffffffff1673ffffffffffffffffffffffffffffffffffffffff1663f7c8d6346005546040518263ffffffff167c0100000000000000000000000000000000000000000000000000000000028152600401808260001916600019168152602001915050602060405180830381600087803b1580156108c757600080fd5b505af11580156108db573d6000803e3d6000fd5b505050506040513d60208110156108f157600080fd5b8101908080519060200190929190505050610261565b611b32565b9150610ab5600260009054906101000a900473ffffffffffffffffffffffffffffffffffffffff1673ffffffffffffffffffffffffffffffffffffffff166351f910666040518163ffffffff167c0100000000000000000000000000000000000000000000000000000000028152600401602060405180830381600087803b15801561099757600080fd5b505af11580156109ab573d6000803e3d6000fd5b505050506040513d60208110156109c157600080fd5b8101908080519060200190929190505050610ab0600260009054906101000a900473ffffffffffffffffffffffffffffffffffffffff1673ffffffffffffffffffffffffffffffffffffffff16631f3634ed6005546040518263ffffffff167c0100000000000000000000000000000000000000000000000000000000028152600401808260001916600019168152602001915050602060405180830381600087803b158015610a7057600080fd5b505af1158015610a84573d6000803e3d6000fd5b505050506040513d6020811015610a9a57600080fd5b8101908080519060200190929190505050610261565b611b32565b9050610add610ad8610ac983600654611b7e565b84611bbe90919063ffffffff16565b61068e565b9250505090565b6000809054906101000a900473ffffffffffffffffffffffffffffffffffffffff1673ffffffffffffffffffffffffffffffffffffffff163373ffffffffffffffffffffffffffffffffffffffff16141515610ba8576040517f08c379a000000000000000000000000000000000000000000000000000000000815260040180806020018281038252601d8152602001807f4f6e6c79206f776e65722063616e2072656c696e71756973682043445000000081525060200191505060405180910390fd5b6000610bb2610d90565b141515610c4d576040517f08c379a000000000000000000000000000000000000000000000000000000000815260040180806020018281038252603d8152602001807f43616e6e6f742072656c696e7175697368692043445020756e74696c20616c6c81526020017f206465627420686173206265656e206163636f756e74656420666f722e00000081525060400191505060405180910390fd5b600260009054906101000a900473ffffffffffffffffffffffffffffffffffffffff1673ffffffffffffffffffffffffffffffffffffffff1663baa8529c600554600160009054906101000a900473ffffffffffffffffffffffffffffffffffffffff166040518363ffffffff167c01000000000000000000000000000000000000000000000000000000000281526004018083600019166000191681526020018273ffffffffffffffffffffffffffffffffffffffff1673ffffffffffffffffffffffffffffffffffffffff16815260200192505050600060405180830381600087803b158015610d3e57600080fd5b505af1158015610d52573d6000803e3d6000fd5b505050506000809054906101000a900473ffffffffffffffffffffffffffffffffffffffff1673ffffffffffffffffffffffffffffffffffffffff16ff5b6000806000806000809350600092505b600a80549050831015610e0f57600a83815481101515610dbc57fe5b9060005260206000209060040201600201549150610dd983611429565b9050610e00610df18284611bdf90919063ffffffff16565b85611bdf90919063ffffffff16565b93508280600101935050610da0565b8394505050505090565b600080600080600080600080600080600099506000985060009750600096505b600a8054905087101561110357600a87815481101515610e5557fe5b906000526020600020906004020160010160009054906101000a900473ffffffffffffffffffffffffffffffffffffffff169550600a87815481101515610e9857fe5b9060005260206000209060040201600201549450610eb587611429565b9350610ecb600285611c0090919063ffffffff16565b9250610ee08385611bbe90919063ffffffff16565b9150610f3483600c60008973ffffffffffffffffffffffffffffffffffffffff1673ffffffffffffffffffffffffffffffffffffffff16815260200190815260200160002054611bdf90919063ffffffff16565b600c60008873ffffffffffffffffffffffffffffffffffffffff1673ffffffffffffffffffffffffffffffffffffffff16815260200190815260200160002081905550600360009054906101000a900473ffffffffffffffffffffffffffffffffffffffff1673ffffffffffffffffffffffffffffffffffffffff1663a9059cbb87600c60008a73ffffffffffffffffffffffffffffffffffffffff1673ffffffffffffffffffffffffffffffffffffffff168152602001908152602001600020546040518363ffffffff167c0100000000000000000000000000000000000000000000000000000000028152600401808373ffffffffffffffffffffffffffffffffffffffff1673ffffffffffffffffffffffffffffffffffffffff16815260200182815260200192505050602060405180830381600087803b15801561107b57600080fd5b505af115801561108f573d6000803e3d6000fd5b505050506040513d60208110156110a557600080fd5b8101908080519060200190929190505050506110ca858b611bdf90919063ffffffff16565b99506110df848a611bdf90919063ffffffff16565b98506110f48289611bdf90919063ffffffff16565b97508680600101975050610e39565b600a60006111119190611d86565b611124888b611bdf90919063ffffffff16565b9050600360009054906101000a900473ffffffffffffffffffffffffffffffffffffffff1673ffffffffffffffffffffffffffffffffffffffff166323b872dd33306111798d8f611bdf90919063ffffffff16565b6040518463ffffffff167c0100000000000000000000000000000000000000000000000000000000028152600401808473ffffffffffffffffffffffffffffffffffffffff1673ffffffffffffffffffffffffffffffffffffffff1681526020018373ffffffffffffffffffffffffffffffffffffffff1673ffffffffffffffffffffffffffffffffffffffff1681526020018281526020019350505050602060405180830381600087803b15801561123157600080fd5b505af1158015611245573d6000803e3d6000fd5b505050506040513d602081101561125b57600080fd5b810190808051906020019092919050505050600360009054906101000a900473ffffffffffffffffffffffffffffffffffffffff1673ffffffffffffffffffffffffffffffffffffffff1663095ea7b3600460009054906101000a900473ffffffffffffffffffffffffffffffffffffffff16836040518363ffffffff167c0100000000000000000000000000000000000000000000000000000000028152600401808373ffffffffffffffffffffffffffffffffffffffff1673ffffffffffffffffffffffffffffffffffffffff16815260200182815260200192505050600060405180830381600087803b15801561135457600080fd5b505af1158015611368573d6000803e3d6000fd5b50505050600460009054906101000a900473ffffffffffffffffffffffffffffffffffffffff1673ffffffffffffffffffffffffffffffffffffffff166349d88e8c8b8a6040518363ffffffff167c01000000000000000000000000000000000000000000000000000000000281526004018083815260200182815260200192505050600060405180830381600087803b15801561140557600080fd5b505af1158015611419573d6000803e3d6000fd5b5050505050505050505050505050565b6000806000600a8481548110151561143d57fe5b906000526020600020906004020191506114666008548360030154611bdf90919063ffffffff16565b4210156114a057611499606461148b6009548560020154611c2a90919063ffffffff16565b611c0090919063ffffffff16565b905061150b565b6115086114ce6008546114c0856003015442611bbe90919063ffffffff16565b611c0090919063ffffffff16565b6114fa60646114ec6009548760020154611c2a90919063ffffffff16565b611c0090919063ffffffff16565b611c2a90919063ffffffff16565b90505b8092505050919050565b600080611520611daa565b61152861028c565b1515156115e9576040517f08c379a00000000000000000000000000000000000000000000000000000000081526004018080602001828103825260418152602001807f43757272656e7420636f6c6c61746572616c697a6174696f6e206973206e6f7481526020017f2062656c6f7720746865206d617267696e2063616c6c207468726573686f6c6481526020017f2e0000000000000000000000000000000000000000000000000000000000000081525060600191505060405180910390fd5b6115f16106c2565b9150600460009054906101000a900473ffffffffffffffffffffffffffffffffffffffff1673ffffffffffffffffffffffffffffffffffffffff1663de14c818836040518263ffffffff167c010000000000000000000000000000000000000000000000000000000002815260040180828152602001915050600060405180830381600087803b15801561168457600080fd5b505af1158015611698573d6000803e3d6000fd5b50505050600360009054906101000a900473ffffffffffffffffffffffffffffffffffffffff1673ffffffffffffffffffffffffffffffffffffffff166323b872dd600460009054906101000a900473ffffffffffffffffffffffffffffffffffffffff1630856040518463ffffffff167c0100000000000000000000000000000000000000000000000000000000028152600401808473ffffffffffffffffffffffffffffffffffffffff1673ffffffffffffffffffffffffffffffffffffffff1681526020018373ffffffffffffffffffffffffffffffffffffffff1673ffffffffffffffffffffffffffffffffffffffff1681526020018281526020019350505050602060405180830381600087803b1580156117b757600080fd5b505af11580156117cb573d6000803e3d6000fd5b505050506040513d60208110156117e157600080fd5b810190808051906020019092919050505050600360009054906101000a900473ffffffffffffffffffffffffffffffffffffffff1673ffffffffffffffffffffffffffffffffffffffff1663095ea7b3600260009054906101000a900473ffffffffffffffffffffffffffffffffffffffff16846040518363ffffffff167c0100000000000000000000000000000000000000000000000000000000028152600401808373ffffffffffffffffffffffffffffffffffffffff1673ffffffffffffffffffffffffffffffffffffffff16815260200182815260200192505050600060405180830381600087803b1580156118da57600080fd5b505af11580156118ee573d6000803e3d6000fd5b50505050600260009054906101000a900473ffffffffffffffffffffffffffffffffffffffff1673ffffffffffffffffffffffffffffffffffffffff166373b38101600554846040518363ffffffff167c010000000000000000000000000000000000000000000000000000000002815260040180836000191660001916815260200182815260200192505050600060405180830381600087803b15801561199557600080fd5b505af11580156119a9573d6000803e3d6000fd5b50505050608060405190810160405280600b5481526020013373ffffffffffffffffffffffffffffffffffffffff168152602001838152602001428152509050600a81908060018154018082558091505090600182039060005260206000209060040201600090919290919091506000820151816000015560208201518160010160006101000a81548173ffffffffffffffffffffffffffffffffffffffff021916908373ffffffffffffffffffffffffffffffffffffffff16021790555060408201518160020155606082015181600301555050507f219dde3cbd9f74e1b2ee438175680c4c6f1ab2650e10b8535508479cc62c349b8160000151826020015183604001518460600151604051808581526020018473ffffffffffffffffffffffffffffffffffffffff1673ffffffffffffffffffffffffffffffffffffffff16815260200183815260200182815260200194505050505060405180910390a1611b206001600b54611bdf90919063ffffffff16565b600b8190555080600001519250505090565b60006b033b2e3c9fd0803ce8000000611b6c611b4e8585611c68565b60026b033b2e3c9fd0803ce8000000811515611b6657fe5b04611d01565b811515611b7557fe5b04905092915050565b600081611bac611b9a856b033b2e3c9fd0803ce8000000611c68565b600285811515611ba657fe5b04611d01565b811515611bb557fe5b04905092915050565b600080838311151515611bd057600080fd5b82840390508091505092915050565b6000808284019050838110151515611bf657600080fd5b8091505092915050565b600080600083111515611c1257600080fd5b8284811515611c1d57fe5b0490508091505092915050565b6000806000841415611c3f5760009150611c61565b8284029050828482811515611c5057fe5b04141515611c5d57600080fd5b8091505b5092915050565b600080821480611c8757508282838502925082811515611c8457fe5b04145b1515611cfb576040517f08c379a00000000000000000000000000000000000000000000000000000000081526004018080602001828103825260148152602001807f64732d6d6174682d6d756c2d6f766572666c6f7700000000000000000000000081525060200191505060405180910390fd5b92915050565b60008282840191508110151515611d80576040517f08c379a00000000000000000000000000000000000000000000000000000000081526004018080602001828103825260148152602001807f64732d6d6174682d6164642d6f766572666c6f7700000000000000000000000081525060200191505060405180910390fd5b92915050565b5080546000825560040290600052602060002090810190611da79190611de9565b50565b60806040519081016040528060008152602001600073ffffffffffffffffffffffffffffffffffffffff16815260200160008152602001600081525090565b611e4491905b80821115611e40576000808201600090556001820160006101000a81549073ffffffffffffffffffffffffffffffffffffffff02191690556002820160009055600382016000905550600401611def565b5090565b905600a165627a7a723058200478010c304e1a6b22c3a8ff0bf9981be9fe74603d810c4a57a03ab0abfb0e6a0029a165627a7a723058203c07b78496cbfc70871eae73e5f23636beecc3303e11f74c0e32d1dfcbd317320029",
  "source": "pragma solidity ^0.4.24;\n\n// It's dumb that we are using both SafeMath and DSMath but I don't have\n// time to fix it.\nimport \"./DSMath.sol\";\nimport 'openzeppelin-solidity/contracts/math/SafeMath.sol';\n\ncontract PepInterface {\n    function peek() public returns (bytes32, bool);\n}\n\ncontract TokenInterface {\n    function allowance(address, address) public view returns (uint);\n    function balanceOf(address) public view returns (uint);\n    function approve(address, uint) public;\n    function transfer(address, uint) public returns (bool);\n    function transferFrom(address, address, uint) public returns (bool);\n    function deposit() public payable;\n    function withdraw(uint) public;\n    function burn(address, uint) public;\n}\n\ncontract VoxInterface {\n    function par() public returns (uint);\n}\n\ncontract TubInterface {\n    VoxInterface public vox;  // Target price feed\n    function open() public returns (bytes32);\n    function join(uint) public;\n    function exit(uint) public;\n    function lock(bytes32, uint) public;\n    function free(bytes32, uint) public;\n    function draw(bytes32, uint) public;\n    function wipe(bytes32, uint) public;\n    function give(bytes32, address) public;\n    function shut(bytes32) public;\n    function cups(bytes32) public view returns (address, uint, uint, uint);\n    function gem() public view returns (TokenInterface);\n    function gov() public view returns (TokenInterface);\n    function skr() public view returns (TokenInterface);\n    function sai() public view returns (TokenInterface);\n    function mat() public view returns (uint);\n    function ink(bytes32) public view returns (uint);\n    function tab(bytes32) public view returns (uint);\n    function rap(bytes32) public view returns (uint);\n    function per() public view returns (uint);\n    function pep() public view returns (PepInterface);\n    function tag() public view returns (uint wad);\n}\n\ncontract SponsorPoolInterface {\n    function approvePayment(uint amount) public;\n    function returnDebt(uint principal, uint interest) public;\n}\n\ncontract SafeCDPFactory {\n    // Map from user address to the Safe CDPs they own\n    mapping(address => address[]) userToSafeCDPs;\n    // A set of all Safe CDPs ever created\n    mapping(address => bool) safeCDPSet;\n    // Safe CDP List\n    bytes32[] safeCDPs;\n\n    address tubAddr; \n    address daiAddr;\n    address sponsorPoolAddr;\n\n    constructor(address _tubAddr, address _daiAddr, address _sponsorPoolAddr) public {\n        tubAddr = _tubAddr;\n        daiAddr = _daiAddr;\n        sponsorPoolAddr = _sponsorPoolAddr;\n    }\n\n    // targetCollateralization: the collateralization ratio that keepers\n    // should keep the CDP at. E.g. 200.\n    //\n    // marginCallThreshold: the collateralization ratio at which the CDP\n    // is deemed unsafe. E.g. 180.\n    //\n    // marginCallDuration: the amount of time the owner has to respond to\n    // a margin call. E.g. 72 hours.\n    // \n    // rewardForKeeper: the percentage of debt used to reward keepers and\n    // sponsors for their service. E.g. 10\n    function createSafeCDP(\n        address _owner,\n        bytes32 _cup,\n        uint _targetCollateralization,\n        uint _marginCallThreshold,\n        uint _marginCallDuration,\n        uint _rewardForKeeper) public returns (address) {\n        SafeCDP cdp = new SafeCDP(\n            _owner,\n            msg.sender,\n            tubAddr,\n            daiAddr,\n            sponsorPoolAddr,\n            _cup,\n            _targetCollateralization,\n            _marginCallThreshold,\n            _marginCallDuration,\n            _rewardForKeeper);\n        userToSafeCDPs[msg.sender].push(address(cdp));\n        safeCDPSet[address(cdp)] = true;\n        safeCDPs.push(_cup);\n    }\n}\n\ncontract SafeCDP is DSMath {\n\n    using SafeMath for uint;\n\n    struct MarginCall {\n        uint id;\n        address keeper;\n        // The amount that the keeper has paid\n        uint amount;\n        // The time when the payment was made\n        uint time;\n    }\n\n    event MarginCallInvoked(uint id, address keeper, uint amount, uint time);\n    event MarginCallsResponded(uint[] marginCallIDs);\n\n    address owner;\n    address proxy;\n    // tub is the global cdp record store\n    // https://github.com/makerdao/sai/blob/master/DEVELOPING.md\n    TubInterface tub;\n    TokenInterface dai;\n    SponsorPoolInterface sponsorPool;\n\n    bytes32 cup;\n\n    // The unit of target collateralization and margin call threshold is the\n    // same as the unit for liquidation ratio in the SAI contracts, which are\n    // all denominated by RAY:\n    // https://github.com/makerdao/dai.js/blob/7d20ed9d64e1add128f4fa39b76c72ac4489c34d/src/utils/constants.js#L5\n    uint targetCollateralization;\n    uint marginCallThreshold;\n\n    // The amount of time the owner has to respond to a margin call before\n    // penalty starts accuring and the keeper starts being able to withdraw\n    // collaterals.\n    uint marginCallDuration;\n    // The reward that the keeper gets to earn, as a percentage of the debt\n    // that the keeper paid.  For instance if it's 10, the reward is 10%.\n    uint rewardForKeeper;\n\n    // A list of margin calls that have been invoked but not cleared.\n    MarginCall[] marginCalls;\n    uint marginCallNonce;\n\n    // Mapping from keeper address to the amount of DAI they can claim from\n    // the amount of debt that the owner has paid.\n    mapping(address => uint) owedToKeeper;\n\n    constructor(\n        address _owner,\n        address _proxy,\n        address _tubAddr,\n        address _daiAddr,\n        address _sponsorPoolAddr,\n        bytes32 _cup,\n        uint _targetCollateralization,\n        uint _marginCallThreshold,\n        uint _marginCallDuration,\n        uint _rewardForKeeper) public {\n\n        owner = _owner;\n        proxy = _proxy;\n        tub = TubInterface(_tubAddr);\n        dai = TokenInterface(_daiAddr);\n        sponsorPool = SponsorPoolInterface(_sponsorPoolAddr);\n        cup = _cup;\n        targetCollateralization = _targetCollateralization;\n        marginCallThreshold = _marginCallThreshold;\n        marginCallDuration = _marginCallDuration;\n        rewardForKeeper = _rewardForKeeper;\n    }\n\n    function marginCall() public returns (uint) {\n        require(!safe(), \"Current collateralization is not below the margin call threshold.\");\n\n        uint debtToPay = diffWithTargetCollateral();\n        sponsorPool.approvePayment(debtToPay);\n        dai.transferFrom(sponsorPool, this, debtToPay);\n        dai.approve(tub, debtToPay);\n        tub.wipe(cup, debtToPay);\n\n        MarginCall memory mc = MarginCall(marginCallNonce, msg.sender, debtToPay, now);\n        marginCalls.push(mc);\n        emit MarginCallInvoked(mc.id, mc.keeper, mc.amount, mc.time);\n        marginCallNonce = marginCallNonce.add(1);\n        return mc.id;\n    }\n\n    function withdrawOwedCollateral() public pure {\n        // TODO\n    }\n\n    // Pay debt to keepers in response to margin calls.\n    //\n    // Although only the owner has any reason to pay debt, there seems to be\n    // no harm in allowing anyone to pay debt, similar to how anyone can wipe\n    // any CDP's debt.\n    //\n    // TODO: Right now we are paying all debt.  Would it make sense to pay\n    // partial debt?\n    function respondToMarginCalls() public {\n        uint totalPrincipal = 0;\n        uint totalInterest = 0;\n        uint totalInterestForPool = 0;\n        for (uint i = 0; i < marginCalls.length; i++) {\n            address keeper = marginCalls[i].keeper;\n            uint principal = marginCalls[i].amount;\n            uint interest = computeInterest(i);\n\n            uint interestForKeeper = interest.div(2);\n            uint interestForPool = interest.sub(interestForKeeper);\n\n            owedToKeeper[keeper] = owedToKeeper[keeper].add(interestForKeeper);\n            // TODO: we shouldn't actually transfer here because the keeper\n            // may be a smart contract and this can be a security flaw.\n            // Rather we should just approve() and let the keeper claim the\n            // reward.\n            // However we didn't have time to implement the logic for the keeper\n            // to claim rewards, so we are doing this for now.\n            dai.transfer(keeper, owedToKeeper[keeper]);\n\n            totalPrincipal = totalPrincipal.add(principal);\n            totalInterest = totalInterest.add(interest);\n            totalInterestForPool = totalInterestForPool.add(interestForPool);\n        }\n\n        // Clear margin calls\n        delete marginCalls;\n\n        uint totalForPool = totalPrincipal.add(totalInterestForPool);\n        // Transfer tokens to self\n        dai.transferFrom(msg.sender, this, totalPrincipal.add(totalInterest));\n        // Approve tokens for the pool and initiate the transfer\n        dai.approve(sponsorPool, totalForPool);\n        sponsorPool.returnDebt(totalPrincipal, totalInterestForPool);\n    }\n\n    // The total amount of debt that the user currently owes to keepers.\n    // In other words, this is the amount that needs to be approved for\n    // transfer before the owner calls respondToMarginCalls.\n    function totalAccuredDebt() public view returns (uint) {\n        uint total = 0;\n        for (uint i = 0; i < marginCalls.length; i++) {\n            uint principal = marginCalls[i].amount;\n            uint interest = computeInterest(i);\n            total = total.add(principal.add(interest));\n        }\n        return total;\n    }\n\n    function computeInterest(uint _mc) public view returns (uint) {\n        MarginCall storage mc = marginCalls[_mc];\n        uint interest;\n        if (now < mc.time.add(marginCallDuration)) {\n            // This is the case if the owner responds to the margin call in time\n            // div by 100 because rewardForKeeper is a percentage.\n            interest = mc.amount.mul(rewardForKeeper).div(100);\n        } else {\n            // If the owner responds after the marginCallDuration has passed,\n            // additional interest will start accuring.\n            interest = mc.amount.mul(rewardForKeeper).div(100).mul(now.sub(mc.time).div(marginCallDuration));\n        }\n        return interest;\n    }\n\n    // Returns whether the collateralization is above the margin call ratio.\n    // Adopted from: https://github.com/makerdao/sai/blob/0dd0a799e4746ac1955b67898762cff9b71aea17/src/tub.sol#L241\n    function safe() public returns (bool) {\n        uint pro = rmul(tub.tag(), tub.ink(cup));\n        uint con = rmul(tub.vox().par(), tub.tab(cup));\n        uint min = rmul(con, marginCallThreshold);\n        return pro >= min;\n    }\n\n    // The difference between the total amount of collateral right now, \n    function diffWithTargetCollateral() public returns (uint) {\n        uint con = rmul(tub.vox().par(), wadToRay(tub.tab(cup)));\n        uint pro = rmul(tub.tag(), wadToRay(tub.ink(cup)));\n        // TODO: is this actually the right unit to use??  You wound up\n        // with a ray number, but what you want is a DAI token count\n        return rayToWad(con.sub(rdiv(pro, targetCollateralization)));\n    }\n\n    function wadToRay(uint wad) public pure returns (uint) {\n        return wad * (RAY/WAD);\n    }\n\n    function rayToWad(uint ray) public pure returns (uint) {\n        return ray / (RAY/WAD);\n    }\n\n    // Give the CDP back to the original owner\n    function relinquish() public {\n        require(msg.sender == owner, \"Only owner can relinquish CDP\");\n        require(totalAccuredDebt() == 0, \"Cannot relinquishi CDP until all debt has been accounted for.\");\n        // We wanna return the CDP to the proxy.\n        tub.give(cup, proxy);\n        selfdestruct(owner);\n    }\n\n}",
  "sourcePath": "/Users/derek/code/ETHDenver/safe-cdp/safe-cdp/contracts/SafeCDPFactory.sol",
  "compiler": {
    "name": "solc",
    "version": "0.4.25+commit.59dbf8f1.Emscripten.clang"
  },
  "schemaVersion": "3.0.2",
  "updatedAt": "2019-02-17T05:43:33.200Z",
  "devdoc": {
    "methods": {}
  },
  "userdoc": {
    "methods": {}
  }
}