{
  "contractName": "SafeCDP",
  "abi": [
    {
      "constant": true,
      "inputs": [
        {
          "name": "",
          "type": "address"
        }
      ],
      "name": "owedToKeeper",
      "outputs": [
        {
          "name": "",
          "type": "uint256"
        }
      ],
      "payable": false,
      "stateMutability": "view",
      "type": "function"
    },
    {
      "constant": true,
      "inputs": [
        {
          "name": "",
          "type": "uint256"
        }
      ],
      "name": "marginCalls",
      "outputs": [
        {
          "name": "id",
          "type": "uint256"
        },
        {
          "name": "keeper",
          "type": "address"
        },
        {
          "name": "amount",
          "type": "uint256"
        },
        {
          "name": "time",
          "type": "uint256"
        }
      ],
      "payable": false,
      "stateMutability": "view",
      "type": "function"
    },
    {
      "constant": true,
      "inputs": [],
      "name": "rewardForKeeper",
      "outputs": [
        {
          "name": "",
          "type": "uint256"
        }
      ],
      "payable": false,
      "stateMutability": "view",
      "type": "function"
    },
    {
      "constant": true,
      "inputs": [],
      "name": "cup",
      "outputs": [
        {
          "name": "",
          "type": "bytes32"
        }
      ],
      "payable": false,
      "stateMutability": "view",
      "type": "function"
    },
    {
      "constant": true,
      "inputs": [],
      "name": "owner",
      "outputs": [
        {
          "name": "",
          "type": "address"
        }
      ],
      "payable": false,
      "stateMutability": "view",
      "type": "function"
    },
    {
      "constant": true,
      "inputs": [],
      "name": "marginCallNonce",
      "outputs": [
        {
          "name": "",
          "type": "uint256"
        }
      ],
      "payable": false,
      "stateMutability": "view",
      "type": "function"
    },
    {
      "constant": true,
      "inputs": [],
      "name": "marginCallDuration",
      "outputs": [
        {
          "name": "",
          "type": "uint256"
        }
      ],
      "payable": false,
      "stateMutability": "view",
      "type": "function"
    },
    {
      "constant": true,
      "inputs": [],
      "name": "marginCallThreshold",
      "outputs": [
        {
          "name": "",
          "type": "uint256"
        }
      ],
      "payable": false,
      "stateMutability": "view",
      "type": "function"
    },
    {
      "constant": true,
      "inputs": [],
      "name": "proxy",
      "outputs": [
        {
          "name": "",
          "type": "address"
        }
      ],
      "payable": false,
      "stateMutability": "view",
      "type": "function"
    },
    {
      "constant": true,
      "inputs": [],
      "name": "targetCollateralization",
      "outputs": [
        {
          "name": "",
          "type": "uint256"
        }
      ],
      "payable": false,
      "stateMutability": "view",
      "type": "function"
    },
    {
      "inputs": [
        {
          "name": "_owner",
          "type": "address"
        },
        {
          "name": "_proxy",
          "type": "address"
        },
        {
          "name": "_tubAddr",
          "type": "address"
        },
        {
          "name": "_daiAddr",
          "type": "address"
        },
        {
          "name": "_sponsorPoolAddr",
          "type": "address"
        },
        {
          "name": "_cup",
          "type": "bytes32"
        },
        {
          "name": "_targetCollateralization",
          "type": "uint256"
        },
        {
          "name": "_marginCallThreshold",
          "type": "uint256"
        },
        {
          "name": "_marginCallDuration",
          "type": "uint256"
        },
        {
          "name": "_rewardForKeeper",
          "type": "uint256"
        }
      ],
      "payable": false,
      "stateMutability": "nonpayable",
      "type": "constructor"
    },
    {
      "anonymous": false,
      "inputs": [
        {
          "indexed": false,
          "name": "id",
          "type": "uint256"
        },
        {
          "indexed": false,
          "name": "keeper",
          "type": "address"
        },
        {
          "indexed": false,
          "name": "amount",
          "type": "uint256"
        },
        {
          "indexed": false,
          "name": "time",
          "type": "uint256"
        }
      ],
      "name": "MarginCallInvoked",
      "type": "event"
    },
    {
      "anonymous": false,
      "inputs": [
        {
          "indexed": false,
          "name": "marginCallIDs",
          "type": "uint256[]"
        }
      ],
      "name": "MarginCallsResponded",
      "type": "event"
    },
    {
      "anonymous": false,
      "inputs": [
        {
          "indexed": false,
          "name": "",
          "type": "uint256"
        },
        {
          "indexed": false,
          "name": "",
          "type": "uint256"
        },
        {
          "indexed": false,
          "name": "",
          "type": "uint256"
        },
        {
          "indexed": false,
          "name": "",
          "type": "uint256"
        },
        {
          "indexed": false,
          "name": "",
          "type": "uint256"
        },
        {
          "indexed": false,
          "name": "",
          "type": "uint256"
        },
        {
          "indexed": false,
          "name": "",
          "type": "uint256"
        },
        {
          "indexed": false,
          "name": "",
          "type": "uint256"
        },
        {
          "indexed": false,
          "name": "",
          "type": "uint256"
        },
        {
          "indexed": false,
          "name": "",
          "type": "uint256"
        }
      ],
      "name": "Log",
      "type": "event"
    },
    {
      "constant": false,
      "inputs": [],
      "name": "marginCall",
      "outputs": [
        {
          "name": "",
          "type": "uint256"
        }
      ],
      "payable": false,
      "stateMutability": "nonpayable",
      "type": "function"
    },
    {
      "constant": true,
      "inputs": [],
      "name": "withdrawOwedCollateral",
      "outputs": [],
      "payable": false,
      "stateMutability": "pure",
      "type": "function"
    },
    {
      "constant": false,
      "inputs": [],
      "name": "respondToMarginCalls",
      "outputs": [],
      "payable": false,
      "stateMutability": "nonpayable",
      "type": "function"
    },
    {
      "constant": true,
      "inputs": [],
      "name": "totalAccuredDebt",
      "outputs": [
        {
          "name": "",
          "type": "uint256"
        }
      ],
      "payable": false,
      "stateMutability": "view",
      "type": "function"
    },
    {
      "constant": true,
      "inputs": [
        {
          "name": "_mc",
          "type": "uint256"
        }
      ],
      "name": "computeInterest",
      "outputs": [
        {
          "name": "",
          "type": "uint256"
        }
      ],
      "payable": false,
      "stateMutability": "view",
      "type": "function"
    },
    {
      "constant": false,
      "inputs": [],
      "name": "safe",
      "outputs": [
        {
          "name": "",
          "type": "bool"
        }
      ],
      "payable": false,
      "stateMutability": "nonpayable",
      "type": "function"
    },
    {
      "constant": false,
      "inputs": [],
      "name": "diffWithTargetCollateral",
      "outputs": [
        {
          "name": "",
          "type": "uint256"
        }
      ],
      "payable": false,
      "stateMutability": "nonpayable",
      "type": "function"
    },
    {
      "constant": true,
      "inputs": [
        {
          "name": "wad",
          "type": "uint256"
        }
      ],
      "name": "wadToRay",
      "outputs": [
        {
          "name": "",
          "type": "uint256"
        }
      ],
      "payable": false,
      "stateMutability": "pure",
      "type": "function"
    },
    {
      "constant": true,
      "inputs": [
        {
          "name": "ray",
          "type": "uint256"
        }
      ],
      "name": "rayToWad",
      "outputs": [
        {
          "name": "",
          "type": "uint256"
        }
      ],
      "payable": false,
      "stateMutability": "pure",
      "type": "function"
    },
    {
      "constant": false,
      "inputs": [],
      "name": "relinquish",
      "outputs": [],
      "payable": false,
      "stateMutability": "nonpayable",
      "type": "function"
    }
  ],
  "bytecode": "0x608060405234801561001057600080fd5b5060405161014080612c3783398101806040528101908080519060200190929190805190602001909291908051906020019092919080519060200190929190805190602001909291908051906020019092919080519060200190929190805190602001909291908051906020019092919080519060200190929190505050896000806101000a81548173ffffffffffffffffffffffffffffffffffffffff021916908373ffffffffffffffffffffffffffffffffffffffff16021790555088600160006101000a81548173ffffffffffffffffffffffffffffffffffffffff021916908373ffffffffffffffffffffffffffffffffffffffff16021790555087600260006101000a81548173ffffffffffffffffffffffffffffffffffffffff021916908373ffffffffffffffffffffffffffffffffffffffff16021790555086600360006101000a81548173ffffffffffffffffffffffffffffffffffffffff021916908373ffffffffffffffffffffffffffffffffffffffff16021790555085600460006101000a81548173ffffffffffffffffffffffffffffffffffffffff021916908373ffffffffffffffffffffffffffffffffffffffff16021790555084600581600019169055508360068190555082600781905550816008819055508060098190555050505050505050505050612a25806102126000396000f300608060405260043610610112576000357c0100000000000000000000000000000000000000000000000000000000900463ffffffff16806310de27b91461011757806311deeb7414610158578063186f0354146101af5780631dbfeb14146101de57806321ea869d1461026057806324072e8a1461027757806329cb5aa4146102a25780633ad10beb146102e35780634ade244614610316578063741ec421146103415780638da5cb5b1461035857806395b1ce8a146103af5780639729e474146103da5780639b9842c114610405578063a6e6181914610430578063a7edfb871461045b578063adc3e6a514610472578063d75352e1146104b3578063ec556889146104de578063f7d9967114610535575b600080fd5b34801561012357600080fd5b5061014260048036038101908080359060200190929190505050610560565b6040518082815260200191505060405180910390f35b34801561016457600080fd5b50610199600480360381019080803573ffffffffffffffffffffffffffffffffffffffff16906020019092919050505061058b565b6040518082815260200191505060405180910390f35b3480156101bb57600080fd5b506101c46105a3565b604051808215151515815260200191505060405180910390f35b3480156101ea57600080fd5b5061020960048036038101908080359060200190929190505050610eac565b604051808581526020018473ffffffffffffffffffffffffffffffffffffffff1673ffffffffffffffffffffffffffffffffffffffff16815260200183815260200182815260200194505050505060405180910390f35b34801561026c57600080fd5b50610275610f0b565b005b34801561028357600080fd5b5061028c610f0d565b6040518082815260200191505060405180910390f35b3480156102ae57600080fd5b506102cd60048036038101908080359060200190929190505050610f13565b6040518082815260200191505060405180910390f35b3480156102ef57600080fd5b506102f8610f47565b60405180826000191660001916815260200191505060405180910390f35b34801561032257600080fd5b5061032b610f4d565b6040518082815260200191505060405180910390f35b34801561034d57600080fd5b506103566117ed565b005b34801561036457600080fd5b5061036d611a99565b604051808273ffffffffffffffffffffffffffffffffffffffff1673ffffffffffffffffffffffffffffffffffffffff16815260200191505060405180910390f35b3480156103bb57600080fd5b506103c4611abe565b6040518082815260200191505060405180910390f35b3480156103e657600080fd5b506103ef611b47565b6040518082815260200191505060405180910390f35b34801561041157600080fd5b5061041a611b4d565b6040518082815260200191505060405180910390f35b34801561043c57600080fd5b50610445611b53565b6040518082815260200191505060405180910390f35b34801561046757600080fd5b50610470611b59565b005b34801561047e57600080fd5b5061049d60048036038101908080359060200190929190505050612169565b6040518082815260200191505060405180910390f35b3480156104bf57600080fd5b506104c8612255565b6040518082815260200191505060405180910390f35b3480156104ea57600080fd5b506104f36126f7565b604051808273ffffffffffffffffffffffffffffffffffffffff1673ffffffffffffffffffffffffffffffffffffffff16815260200191505060405180910390f35b34801561054157600080fd5b5061054a61271d565b6040518082815260200191505060405180910390f35b6000670de0b6b3a76400006b033b2e3c9fd0803ce800000081151561058157fe5b0482029050919050565b600c6020528060005260406000206000915090505481565b600080600080610748600260009054906101000a900473ffffffffffffffffffffffffffffffffffffffff1673ffffffffffffffffffffffffffffffffffffffff166351f910666040518163ffffffff167c0100000000000000000000000000000000000000000000000000000000028152600401602060405180830381600087803b15801561063257600080fd5b505af1158015610646573d6000803e3d6000fd5b505050506040513d602081101561065c57600080fd5b8101908080519060200190929190505050600260009054906101000a900473ffffffffffffffffffffffffffffffffffffffff1673ffffffffffffffffffffffffffffffffffffffff16631f3634ed6005546040518263ffffffff167c0100000000000000000000000000000000000000000000000000000000028152600401808260001916600019168152602001915050602060405180830381600087803b15801561070857600080fd5b505af115801561071c573d6000803e3d6000fd5b505050506040513d602081101561073257600080fd5b8101908080519060200190929190505050612723565b9250610987600260009054906101000a900473ffffffffffffffffffffffffffffffffffffffff1673ffffffffffffffffffffffffffffffffffffffff166367550a356040518163ffffffff167c0100000000000000000000000000000000000000000000000000000000028152600401602060405180830381600087803b1580156107d357600080fd5b505af11580156107e7573d6000803e3d6000fd5b505050506040513d60208110156107fd57600080fd5b810190808051906020019092919050505073ffffffffffffffffffffffffffffffffffffffff1663495d32cb6040518163ffffffff167c0100000000000000000000000000000000000000000000000000000000028152600401602060405180830381600087803b15801561087157600080fd5b505af1158015610885573d6000803e3d6000fd5b505050506040513d602081101561089b57600080fd5b8101908080519060200190929190505050600260009054906101000a900473ffffffffffffffffffffffffffffffffffffffff1673ffffffffffffffffffffffffffffffffffffffff1663f7c8d6346005546040518263ffffffff167c0100000000000000000000000000000000000000000000000000000000028152600401808260001916600019168152602001915050602060405180830381600087803b15801561094757600080fd5b505af115801561095b573d6000803e3d6000fd5b505050506040513d602081101561097157600080fd5b8101908080519060200190929190505050612723565b915061099582600754612723565b90507f72fca3b1461b8bff7cd580115ade39246b95a6e446c28bc104ce167ef64c1c3d83600260009054906101000a900473ffffffffffffffffffffffffffffffffffffffff1673ffffffffffffffffffffffffffffffffffffffff166351f910666040518163ffffffff167c0100000000000000000000000000000000000000000000000000000000028152600401602060405180830381600087803b158015610a3f57600080fd5b505af1158015610a53573d6000803e3d6000fd5b505050506040513d6020811015610a6957600080fd5b8101908080519060200190929190505050600260009054906101000a900473ffffffffffffffffffffffffffffffffffffffff1673ffffffffffffffffffffffffffffffffffffffff16631f3634ed6005546040518263ffffffff167c0100000000000000000000000000000000000000000000000000000000028152600401808260001916600019168152602001915050602060405180830381600087803b158015610b1557600080fd5b505af1158015610b29573d6000803e3d6000fd5b505050506040513d6020811015610b3f57600080fd5b810190808051906020019092919050505085600260009054906101000a900473ffffffffffffffffffffffffffffffffffffffff1673ffffffffffffffffffffffffffffffffffffffff166367550a356040518163ffffffff167c0100000000000000000000000000000000000000000000000000000000028152600401602060405180830381600087803b158015610bd757600080fd5b505af1158015610beb573d6000803e3d6000fd5b505050506040513d6020811015610c0157600080fd5b810190808051906020019092919050505073ffffffffffffffffffffffffffffffffffffffff1663495d32cb6040518163ffffffff167c0100000000000000000000000000000000000000000000000000000000028152600401602060405180830381600087803b158015610c7557600080fd5b505af1158015610c89573d6000803e3d6000fd5b505050506040513d6020811015610c9f57600080fd5b8101908080519060200190929190505050600260009054906101000a900473ffffffffffffffffffffffffffffffffffffffff1673ffffffffffffffffffffffffffffffffffffffff1663f7c8d6346005546040518263ffffffff167c0100000000000000000000000000000000000000000000000000000000028152600401808260001916600019168152602001915050602060405180830381600087803b158015610d4b57600080fd5b505af1158015610d5f573d6000803e3d6000fd5b505050506040513d6020811015610d7557600080fd5b81019080805190602001909291905050508789600754600260009054906101000a900473ffffffffffffffffffffffffffffffffffffffff1673ffffffffffffffffffffffffffffffffffffffff1663ab0783da6040518163ffffffff167c0100000000000000000000000000000000000000000000000000000000028152600401602060405180830381600087803b158015610e1157600080fd5b505af1158015610e25573d6000803e3d6000fd5b505050506040513d6020811015610e3b57600080fd5b8101908080519060200190929190505050604051808b81526020018a81526020018981526020018881526020018781526020018681526020018581526020018481526020018381526020018281526020019a505050505050505050505060405180910390a180831015935050505090565b600a81815481101515610ebb57fe5b90600052602060002090600402016000915090508060000154908060010160009054906101000a900473ffffffffffffffffffffffffffffffffffffffff16908060020154908060030154905084565b565b60095481565b6000670de0b6b3a76400006b033b2e3c9fd0803ce8000000811515610f3457fe5b0482811515610f3f57fe5b049050919050565b60055481565b6000806000611197600260009054906101000a900473ffffffffffffffffffffffffffffffffffffffff1673ffffffffffffffffffffffffffffffffffffffff166367550a356040518163ffffffff167c0100000000000000000000000000000000000000000000000000000000028152600401602060405180830381600087803b158015610fdb57600080fd5b505af1158015610fef573d6000803e3d6000fd5b505050506040513d602081101561100557600080fd5b810190808051906020019092919050505073ffffffffffffffffffffffffffffffffffffffff1663495d32cb6040518163ffffffff167c0100000000000000000000000000000000000000000000000000000000028152600401602060405180830381600087803b15801561107957600080fd5b505af115801561108d573d6000803e3d6000fd5b505050506040513d60208110156110a357600080fd5b8101908080519060200190929190505050611192600260009054906101000a900473ffffffffffffffffffffffffffffffffffffffff1673ffffffffffffffffffffffffffffffffffffffff1663f7c8d6346005546040518263ffffffff167c0100000000000000000000000000000000000000000000000000000000028152600401808260001916600019168152602001915050602060405180830381600087803b15801561115257600080fd5b505af1158015611166573d6000803e3d6000fd5b505050506040513d602081101561117c57600080fd5b8101908080519060200190929190505050610560565b612723565b9150611340600260009054906101000a900473ffffffffffffffffffffffffffffffffffffffff1673ffffffffffffffffffffffffffffffffffffffff166351f910666040518163ffffffff167c0100000000000000000000000000000000000000000000000000000000028152600401602060405180830381600087803b15801561122257600080fd5b505af1158015611236573d6000803e3d6000fd5b505050506040513d602081101561124c57600080fd5b810190808051906020019092919050505061133b600260009054906101000a900473ffffffffffffffffffffffffffffffffffffffff1673ffffffffffffffffffffffffffffffffffffffff16631f3634ed6005546040518263ffffffff167c0100000000000000000000000000000000000000000000000000000000028152600401808260001916600019168152602001915050602060405180830381600087803b1580156112fb57600080fd5b505af115801561130f573d6000803e3d6000fd5b505050506040513d602081101561132557600080fd5b8101908080519060200190929190505050610560565b612723565b90507f72fca3b1461b8bff7cd580115ade39246b95a6e446c28bc104ce167ef64c1c3d82600260009054906101000a900473ffffffffffffffffffffffffffffffffffffffff1673ffffffffffffffffffffffffffffffffffffffff166367550a356040518163ffffffff167c0100000000000000000000000000000000000000000000000000000000028152600401602060405180830381600087803b1580156113ea57600080fd5b505af11580156113fe573d6000803e3d6000fd5b505050506040513d602081101561141457600080fd5b810190808051906020019092919050505073ffffffffffffffffffffffffffffffffffffffff1663495d32cb6040518163ffffffff167c0100000000000000000000000000000000000000000000000000000000028152600401602060405180830381600087803b15801561148857600080fd5b505af115801561149c573d6000803e3d6000fd5b505050506040513d60208110156114b257600080fd5b81019080805190602001909291905050506115a1600260009054906101000a900473ffffffffffffffffffffffffffffffffffffffff1673ffffffffffffffffffffffffffffffffffffffff1663f7c8d6346005546040518263ffffffff167c0100000000000000000000000000000000000000000000000000000000028152600401808260001916600019168152602001915050602060405180830381600087803b15801561156157600080fd5b505af1158015611575573d6000803e3d6000fd5b505050506040513d602081101561158b57600080fd5b8101908080519060200190929190505050610560565b84600260009054906101000a900473ffffffffffffffffffffffffffffffffffffffff1673ffffffffffffffffffffffffffffffffffffffff166351f910666040518163ffffffff167c0100000000000000000000000000000000000000000000000000000000028152600401602060405180830381600087803b15801561162857600080fd5b505af115801561163c573d6000803e3d6000fd5b505050506040513d602081101561165257600080fd5b8101908080519060200190929190505050611741600260009054906101000a900473ffffffffffffffffffffffffffffffffffffffff1673ffffffffffffffffffffffffffffffffffffffff16631f3634ed6005546040518263ffffffff167c0100000000000000000000000000000000000000000000000000000000028152600401808260001916600019168152602001915050602060405180830381600087803b15801561170157600080fd5b505af1158015611715573d6000803e3d6000fd5b505050506040513d602081101561172b57600080fd5b8101908080519060200190929190505050610560565b6117676117626117538a60065461276f565b8b6127af90919063ffffffff16565b610f13565b6000806000604051808b81526020018a81526020018981526020018881526020018781526020018681526020018581526020018481526020018381526020018281526020019a505050505050505050505060405180910390a16117e66117e16117d28360065461276f565b846127af90919063ffffffff16565b610f13565b9250505090565b6000809054906101000a900473ffffffffffffffffffffffffffffffffffffffff1673ffffffffffffffffffffffffffffffffffffffff163373ffffffffffffffffffffffffffffffffffffffff161415156118b1576040517f08c379a000000000000000000000000000000000000000000000000000000000815260040180806020018281038252601d8152602001807f4f6e6c79206f776e65722063616e2072656c696e71756973682043445000000081525060200191505060405180910390fd5b60006118bb611abe565b141515611956576040517f08c379a000000000000000000000000000000000000000000000000000000000815260040180806020018281038252603d8152602001807f43616e6e6f742072656c696e7175697368692043445020756e74696c20616c6c81526020017f206465627420686173206265656e206163636f756e74656420666f722e00000081525060400191505060405180910390fd5b600260009054906101000a900473ffffffffffffffffffffffffffffffffffffffff1673ffffffffffffffffffffffffffffffffffffffff1663baa8529c600554600160009054906101000a900473ffffffffffffffffffffffffffffffffffffffff166040518363ffffffff167c01000000000000000000000000000000000000000000000000000000000281526004018083600019166000191681526020018273ffffffffffffffffffffffffffffffffffffffff1673ffffffffffffffffffffffffffffffffffffffff16815260200192505050600060405180830381600087803b158015611a4757600080fd5b505af1158015611a5b573d6000803e3d6000fd5b505050506000809054906101000a900473ffffffffffffffffffffffffffffffffffffffff1673ffffffffffffffffffffffffffffffffffffffff16ff5b6000809054906101000a900473ffffffffffffffffffffffffffffffffffffffff1681565b6000806000806000809350600092505b600a80549050831015611b3d57600a83815481101515611aea57fe5b9060005260206000209060040201600201549150611b0783612169565b9050611b2e611b1f82846127d090919063ffffffff16565b856127d090919063ffffffff16565b93508280600101935050611ace565b8394505050505090565b600b5481565b60085481565b60075481565b600080600080600080600080600080600099506000985060009750600096505b600a80549050871015611e4357600a87815481101515611b9557fe5b906000526020600020906004020160010160009054906101000a900473ffffffffffffffffffffffffffffffffffffffff169550600a87815481101515611bd857fe5b9060005260206000209060040201600201549450611bf587612169565b9350611c0b6002856127f190919063ffffffff16565b9250611c2083856127af90919063ffffffff16565b9150611c7483600c60008973ffffffffffffffffffffffffffffffffffffffff1673ffffffffffffffffffffffffffffffffffffffff168152602001908152602001600020546127d090919063ffffffff16565b600c60008873ffffffffffffffffffffffffffffffffffffffff1673ffffffffffffffffffffffffffffffffffffffff16815260200190815260200160002081905550600360009054906101000a900473ffffffffffffffffffffffffffffffffffffffff1673ffffffffffffffffffffffffffffffffffffffff1663a9059cbb87600c60008a73ffffffffffffffffffffffffffffffffffffffff1673ffffffffffffffffffffffffffffffffffffffff168152602001908152602001600020546040518363ffffffff167c0100000000000000000000000000000000000000000000000000000000028152600401808373ffffffffffffffffffffffffffffffffffffffff1673ffffffffffffffffffffffffffffffffffffffff16815260200182815260200192505050602060405180830381600087803b158015611dbb57600080fd5b505af1158015611dcf573d6000803e3d6000fd5b505050506040513d6020811015611de557600080fd5b810190808051906020019092919050505050611e0a858b6127d090919063ffffffff16565b9950611e1f848a6127d090919063ffffffff16565b9850611e3482896127d090919063ffffffff16565b97508680600101975050611b79565b600a6000611e519190612977565b611e64888b6127d090919063ffffffff16565b9050600360009054906101000a900473ffffffffffffffffffffffffffffffffffffffff1673ffffffffffffffffffffffffffffffffffffffff166323b872dd3330611eb98d8f6127d090919063ffffffff16565b6040518463ffffffff167c0100000000000000000000000000000000000000000000000000000000028152600401808473ffffffffffffffffffffffffffffffffffffffff1673ffffffffffffffffffffffffffffffffffffffff1681526020018373ffffffffffffffffffffffffffffffffffffffff1673ffffffffffffffffffffffffffffffffffffffff1681526020018281526020019350505050602060405180830381600087803b158015611f7157600080fd5b505af1158015611f85573d6000803e3d6000fd5b505050506040513d6020811015611f9b57600080fd5b810190808051906020019092919050505050600360009054906101000a900473ffffffffffffffffffffffffffffffffffffffff1673ffffffffffffffffffffffffffffffffffffffff1663095ea7b3600460009054906101000a900473ffffffffffffffffffffffffffffffffffffffff16836040518363ffffffff167c0100000000000000000000000000000000000000000000000000000000028152600401808373ffffffffffffffffffffffffffffffffffffffff1673ffffffffffffffffffffffffffffffffffffffff16815260200182815260200192505050600060405180830381600087803b15801561209457600080fd5b505af11580156120a8573d6000803e3d6000fd5b50505050600460009054906101000a900473ffffffffffffffffffffffffffffffffffffffff1673ffffffffffffffffffffffffffffffffffffffff166349d88e8c8b8a6040518363ffffffff167c01000000000000000000000000000000000000000000000000000000000281526004018083815260200182815260200192505050600060405180830381600087803b15801561214557600080fd5b505af1158015612159573d6000803e3d6000fd5b5050505050505050505050505050565b6000806000600a8481548110151561217d57fe5b906000526020600020906004020191506121a660085483600301546127d090919063ffffffff16565b4210156121e0576121d960646121cb600954856002015461281b90919063ffffffff16565b6127f190919063ffffffff16565b905061224b565b61224861220e6008546122008560030154426127af90919063ffffffff16565b6127f190919063ffffffff16565b61223a606461222c600954876002015461281b90919063ffffffff16565b6127f190919063ffffffff16565b61281b90919063ffffffff16565b90505b8092505050919050565b6000806122606105a3565b151515612321576040517f08c379a00000000000000000000000000000000000000000000000000000000081526004018080602001828103825260418152602001807f43757272656e7420636f6c6c61746572616c697a6174696f6e206973206e6f7481526020017f2062656c6f7720746865206d617267696e2063616c6c207468726573686f6c6481526020017f2e0000000000000000000000000000000000000000000000000000000000000081525060600191505060405180910390fd5b612329610f4d565b9050600460009054906101000a900473ffffffffffffffffffffffffffffffffffffffff1673ffffffffffffffffffffffffffffffffffffffff1663de14c818826040518263ffffffff167c010000000000000000000000000000000000000000000000000000000002815260040180828152602001915050600060405180830381600087803b1580156123bc57600080fd5b505af11580156123d0573d6000803e3d6000fd5b50505050600360009054906101000a900473ffffffffffffffffffffffffffffffffffffffff1673ffffffffffffffffffffffffffffffffffffffff166323b872dd600460009054906101000a900473ffffffffffffffffffffffffffffffffffffffff1630846040518463ffffffff167c0100000000000000000000000000000000000000000000000000000000028152600401808473ffffffffffffffffffffffffffffffffffffffff1673ffffffffffffffffffffffffffffffffffffffff1681526020018373ffffffffffffffffffffffffffffffffffffffff1673ffffffffffffffffffffffffffffffffffffffff1681526020018281526020019350505050602060405180830381600087803b1580156124ef57600080fd5b505af1158015612503573d6000803e3d6000fd5b505050506040513d602081101561251957600080fd5b810190808051906020019092919050505050600360009054906101000a900473ffffffffffffffffffffffffffffffffffffffff1673ffffffffffffffffffffffffffffffffffffffff1663095ea7b3600260009054906101000a900473ffffffffffffffffffffffffffffffffffffffff1669152d02c7e14af68000006040518363ffffffff167c0100000000000000000000000000000000000000000000000000000000028152600401808373ffffffffffffffffffffffffffffffffffffffff1673ffffffffffffffffffffffffffffffffffffffff16815260200182815260200192505050600060405180830381600087803b15801561261c57600080fd5b505af1158015612630573d6000803e3d6000fd5b50505050600260009054906101000a900473ffffffffffffffffffffffffffffffffffffffff1673ffffffffffffffffffffffffffffffffffffffff166373b38101600554836040518363ffffffff167c010000000000000000000000000000000000000000000000000000000002815260040180836000191660001916815260200182815260200192505050600060405180830381600087803b1580156126d757600080fd5b505af11580156126eb573d6000803e3d6000fd5b50505050600091505090565b600160009054906101000a900473ffffffffffffffffffffffffffffffffffffffff1681565b60065481565b60006b033b2e3c9fd0803ce800000061275d61273f8585612859565b60026b033b2e3c9fd0803ce800000081151561275757fe5b046128f2565b81151561276657fe5b04905092915050565b60008161279d61278b856b033b2e3c9fd0803ce8000000612859565b60028581151561279757fe5b046128f2565b8115156127a657fe5b04905092915050565b6000808383111515156127c157600080fd5b82840390508091505092915050565b60008082840190508381101515156127e757600080fd5b8091505092915050565b60008060008311151561280357600080fd5b828481151561280e57fe5b0490508091505092915050565b60008060008414156128305760009150612852565b828402905082848281151561284157fe5b0414151561284e57600080fd5b8091505b5092915050565b6000808214806128785750828283850292508281151561287557fe5b04145b15156128ec576040517f08c379a00000000000000000000000000000000000000000000000000000000081526004018080602001828103825260148152602001807f64732d6d6174682d6d756c2d6f766572666c6f7700000000000000000000000081525060200191505060405180910390fd5b92915050565b60008282840191508110151515612971576040517f08c379a00000000000000000000000000000000000000000000000000000000081526004018080602001828103825260148152602001807f64732d6d6174682d6164642d6f766572666c6f7700000000000000000000000081525060200191505060405180910390fd5b92915050565b5080546000825560040290600052602060002090810190612998919061299b565b50565b6129f691905b808211156129f2576000808201600090556001820160006101000a81549073ffffffffffffffffffffffffffffffffffffffff021916905560028201600090556003820160009055506004016129a1565b5090565b905600a165627a7a72305820687e5728d803eef87ae837d07e3c91d7915fc5ec24f4b56dd7a59524b2e7b4440029",
  "source": "pragma solidity ^0.4.24;\n\n// It's dumb that we are using both SafeMath and DSMath but I don't have\n// time to fix it.\nimport \"./DSMath.sol\";\nimport 'openzeppelin-solidity/contracts/math/SafeMath.sol';\n\ncontract PepInterface {\n    function peek() public returns (bytes32, bool);\n}\n\ncontract TokenInterface {\n    function allowance(address, address) public view returns (uint);\n    function balanceOf(address) public view returns (uint);\n    function approve(address, uint) public;\n    function transfer(address, uint) public returns (bool);\n    function transferFrom(address, address, uint) public returns (bool);\n    function deposit() public payable;\n    function withdraw(uint) public;\n    function burn(address, uint) public;\n}\n\ncontract VoxInterface {\n    function par() public returns (uint);\n}\n\ncontract TubInterface {\n    VoxInterface public vox;  // Target price feed\n    function open() public returns (bytes32);\n    function join(uint) public;\n    function exit(uint) public;\n    function lock(bytes32, uint) public;\n    function free(bytes32, uint) public;\n    function draw(bytes32, uint) public;\n    function wipe(bytes32, uint) public;\n    function give(bytes32, address) public;\n    function shut(bytes32) public;\n    function cups(bytes32) public view returns (address, uint, uint, uint);\n    function gem() public view returns (TokenInterface);\n    function gov() public view returns (TokenInterface);\n    function skr() public view returns (TokenInterface);\n    function sai() public view returns (TokenInterface);\n    function mat() public view returns (uint);\n    function ink(bytes32) public view returns (uint);\n    function tab(bytes32) public view returns (uint);\n    function rap(bytes32) public view returns (uint);\n    function per() public view returns (uint);\n    function pep() public view returns (PepInterface);\n    function tag() public view returns (uint wad);\n}\n\ncontract SponsorPoolInterface {\n    function approvePayment(uint amount) public;\n    function returnDebt(uint principal, uint interest) public;\n}\n\ncontract SafeCDPFactory {\n    event SafeCDPCreated (address cdp);\n\n    // Map from user address to the Safe CDPs they own\n    mapping(address => address[]) public userToSafeCDPs;\n    // A set of all Safe CDPs ever created\n    mapping(address => bool) public safeCDPSet;\n    // A reverse index from CDP to SafeCDP\n    mapping(bytes32 => address) public cdpToSafeCDP;\n    mapping(address => address) public safeCDPToUser;\n    // Safe CDP List\n    bytes32[] public safeCDPs;\n\n    function getSafeCDPs() external view returns (bytes32[]) {\n        return safeCDPs;\n    }\n\n    address tubAddr;\n    address daiAddr;\n    address sponsorPoolAddr;\n\n    constructor(address _tubAddr, address _daiAddr, address _sponsorPoolAddr) public {\n        tubAddr = _tubAddr;\n        daiAddr = _daiAddr;\n        sponsorPoolAddr = _sponsorPoolAddr;\n    }\n\n    // targetCollateralization: the collateralization ratio that keepers\n    // should keep the CDP at. E.g. 200.\n    //\n    // marginCallThreshold: the collateralization ratio at which the CDP\n    // is deemed unsafe. E.g. 180.\n    //\n    // marginCallDuration: the amount of time the owner has to respond to\n    // a margin call. E.g. 72 hours.\n    //\n    // rewardForKeeper: the percentage of debt used to reward keepers and\n    // sponsors for their service. E.g. 10\n    function createSafeCDP(\n        address _proxy,\n        bytes32 _cup,\n        uint _targetCollateralization,\n        uint _marginCallThreshold,\n        uint _marginCallDuration,\n        uint _rewardForKeeper) public returns (address) {\n        SafeCDP cdp = new SafeCDP(\n            msg.sender,\n            _proxy,\n            tubAddr,\n            daiAddr,\n            sponsorPoolAddr,\n            _cup,\n            _targetCollateralization,\n            _marginCallThreshold,\n            _marginCallDuration,\n            _rewardForKeeper);\n        userToSafeCDPs[msg.sender].push(address(cdp));\n        safeCDPSet[address(cdp)] = true;\n        safeCDPs.push(_cup);\n        cdpToSafeCDP[_cup] = address(cdp);\n        safeCDPToUser[address(cdp)] = msg.sender;\n        emit SafeCDPCreated(address(cdp));\n        return cdp;\n    }\n}\n\ncontract SafeCDP is DSMath {\n\n    using SafeMath for uint;\n\n    struct MarginCall {\n        uint id;\n        address keeper;\n        // The amount that the keeper has paid\n        uint amount;\n        // The time when the payment was made\n        uint time;\n    }\n\n    event MarginCallInvoked(uint id, address keeper, uint amount, uint time);\n    event MarginCallsResponded(uint[] marginCallIDs);\n    event Log(uint, uint, uint, uint, uint, uint, uint, uint, uint, uint);\n\n    address public owner;\n    address public proxy;\n    // tub is the global cdp record store\n    // https://github.com/makerdao/sai/blob/master/DEVELOPING.md\n    TubInterface tub;\n    TokenInterface dai;\n    SponsorPoolInterface sponsorPool;\n\n    bytes32 public cup;\n\n    // The unit of target collateralization and margin call threshold is the\n    // same as the unit for liquidation ratio in the SAI contracts, which are\n    // all denominated by RAY:\n    // https://github.com/makerdao/dai.js/blob/7d20ed9d64e1add128f4fa39b76c72ac4489c34d/src/utils/constants.js#L5\n    uint public targetCollateralization;\n    uint public marginCallThreshold;\n\n    // The amount of time the owner has to respond to a margin call before\n    // penalty starts accuring and the keeper starts being able to withdraw\n    // collaterals.\n    uint public marginCallDuration;\n    // The reward that the keeper gets to earn, as a percentage of the debt\n    // that the keeper paid.  For instance if it's 10, the reward is 10%.\n    uint public rewardForKeeper;\n\n    // A list of margin calls that have been invoked but not cleared.\n    MarginCall[] public marginCalls;\n    uint public marginCallNonce;\n\n    // Mapping from keeper address to the amount of DAI they can claim from\n    // the amount of debt that the owner has paid.\n    mapping(address => uint) public owedToKeeper;\n\n    constructor(\n        address _owner,\n        address _proxy,\n        address _tubAddr,\n        address _daiAddr,\n        address _sponsorPoolAddr,\n        bytes32 _cup,\n        uint _targetCollateralization,\n        uint _marginCallThreshold,\n        uint _marginCallDuration,\n        uint _rewardForKeeper) public {\n\n        owner = _owner;\n        proxy = _proxy;\n        tub = TubInterface(_tubAddr);\n        dai = TokenInterface(_daiAddr);\n        sponsorPool = SponsorPoolInterface(_sponsorPoolAddr);\n        cup = _cup;\n        targetCollateralization = _targetCollateralization;\n        marginCallThreshold = _marginCallThreshold;\n        marginCallDuration = _marginCallDuration;\n        rewardForKeeper = _rewardForKeeper;\n    }\n\n    function marginCall() public returns (uint) {\n        require(!safe(), \"Current collateralization is not below the margin call threshold.\");\n\n        uint debtToPay = diffWithTargetCollateral();\n        sponsorPool.approvePayment(debtToPay);\n        dai.transferFrom(sponsorPool, this, debtToPay);\n        dai.approve(tub, 100000000000000000000000);\n        tub.wipe(cup, debtToPay);\n\n        return 0;\n    }\n\n    function withdrawOwedCollateral() public pure {\n        // TODO\n    }\n\n    // Pay debt to keepers in response to margin calls.\n    //\n    // Although only the owner has any reason to pay debt, there seems to be\n    // no harm in allowing anyone to pay debt, similar to how anyone can wipe\n    // any CDP's debt.\n    //\n    // TODO: Right now we are paying all debt.  Would it make sense to pay\n    // partial debt?\n    function respondToMarginCalls() public {\n        uint totalPrincipal = 0;\n        uint totalInterest = 0;\n        uint totalInterestForPool = 0;\n        for (uint i = 0; i < marginCalls.length; i++) {\n            address keeper = marginCalls[i].keeper;\n            uint principal = marginCalls[i].amount;\n            uint interest = computeInterest(i);\n\n            uint interestForKeeper = interest.div(2);\n            uint interestForPool = interest.sub(interestForKeeper);\n\n            owedToKeeper[keeper] = owedToKeeper[keeper].add(interestForKeeper);\n            // TODO: we shouldn't actually transfer here because the keeper\n            // may be a smart contract and this can be a security flaw.\n            // Rather we should just approve() and let the keeper claim the\n            // reward.\n            // However we didn't have time to implement the logic for the keeper\n            // to claim rewards, so we are doing this for now.\n            dai.transfer(keeper, owedToKeeper[keeper]);\n\n            totalPrincipal = totalPrincipal.add(principal);\n            totalInterest = totalInterest.add(interest);\n            totalInterestForPool = totalInterestForPool.add(interestForPool);\n        }\n\n        // Clear margin calls\n        delete marginCalls;\n\n        uint totalForPool = totalPrincipal.add(totalInterestForPool);\n        // Transfer tokens to self\n        dai.transferFrom(msg.sender, this, totalPrincipal.add(totalInterest));\n        // Approve tokens for the pool and initiate the transfer\n        dai.approve(sponsorPool, totalForPool);\n        sponsorPool.returnDebt(totalPrincipal, totalInterestForPool);\n    }\n\n    // The total amount of debt that the user currently owes to keepers.\n    // In other words, this is the amount that needs to be approved for\n    // transfer before the owner calls respondToMarginCalls.\n    function totalAccuredDebt() public view returns (uint) {\n        uint total = 0;\n        for (uint i = 0; i < marginCalls.length; i++) {\n            uint principal = marginCalls[i].amount;\n            uint interest = computeInterest(i);\n            total = total.add(principal.add(interest));\n        }\n        return total;\n    }\n\n    function computeInterest(uint _mc) public view returns (uint) {\n        MarginCall storage mc = marginCalls[_mc];\n        uint interest;\n        if (now < mc.time.add(marginCallDuration)) {\n            // This is the case if the owner responds to the margin call in time\n            // div by 100 because rewardForKeeper is a percentage.\n            interest = mc.amount.mul(rewardForKeeper).div(100);\n        } else {\n            // If the owner responds after the marginCallDuration has passed,\n            // additional interest will start accuring.\n            interest = mc.amount.mul(rewardForKeeper).div(100).mul(now.sub(mc.time).div(marginCallDuration));\n        }\n        return interest;\n    }\n\n    // Returns whether the collateralization is above the margin call ratio.\n    // Adopted from: https://github.com/makerdao/sai/blob/0dd0a799e4746ac1955b67898762cff9b71aea17/src/tub.sol#L241\n    function safe() public returns (bool) {\n        uint pro = rmul(tub.tag(), tub.ink(cup));\n        uint con = rmul(tub.vox().par(), tub.tab(cup));\n        uint min = rmul(con, marginCallThreshold);\n        emit Log(pro, tub.tag(), tub.ink(cup), con, tub.vox().par(), tub.tab(cup), min, con, marginCallThreshold, tub.mat());\n        return pro >= min;\n    }\n\n    // The difference between the total amount of collateral right now,\n    function diffWithTargetCollateral() public returns (uint) {\n        uint con = rmul(tub.vox().par(), wadToRay(tub.tab(cup)));\n        uint pro = rmul(tub.tag(), wadToRay(tub.ink(cup)));\n        // TODO: is this actually the right unit to use??  You wound up\n        // with a ray number, but what you want is a DAI token count\n        emit Log(con, tub.vox().par(), wadToRay(tub.tab(cup)), pro, tub.tag(), wadToRay(tub.ink(cup)), rayToWad(con.sub(rdiv(pro, targetCollateralization))), 0, 0, 0);\n        return rayToWad(con.sub(rdiv(pro, targetCollateralization)));\n    }\n\n    function wadToRay(uint wad) public pure returns (uint) {\n        return wad * (RAY/WAD);\n    }\n\n    function rayToWad(uint ray) public pure returns (uint) {\n        return ray / (RAY/WAD);\n    }\n\n    // Give the CDP back to the original owner\n    function relinquish() public {\n        require(msg.sender == owner, \"Only owner can relinquish CDP\");\n        require(totalAccuredDebt() == 0, \"Cannot relinquishi CDP until all debt has been accounted for.\");\n        // We wanna return the CDP to the proxy.\n        tub.give(cup, proxy);\n        selfdestruct(owner);\n    }\n\n}",
  "sourcePath": "/Users/derek/code/ETHDenver/safe-cdp/safe-cdp/contracts/SafeCDPFactory.sol",
  "compiler": {
    "name": "solc",
    "version": "0.4.25+commit.59dbf8f1.Emscripten.clang"
  },
  "schemaVersion": "3.0.2",
  "updatedAt": "2019-02-17T14:46:03.984Z",
  "devdoc": {
    "methods": {}
  },
  "userdoc": {
    "methods": {}
  }
}