{
  "contractName": "Sponsor",
  "abi": [
    {
      "constant": true,
      "inputs": [
        {
          "name": "",
          "type": "address"
        }
      ],
      "name": "readyTime",
      "outputs": [
        {
          "name": "",
          "type": "uint32"
        }
      ],
      "payable": false,
      "stateMutability": "view",
      "type": "function",
      "signature": "0x09ba38ac"
    },
    {
      "constant": true,
      "inputs": [],
      "name": "decimals",
      "outputs": [
        {
          "name": "",
          "type": "uint8"
        }
      ],
      "payable": false,
      "stateMutability": "view",
      "type": "function",
      "signature": "0x313ce567"
    },
    {
      "constant": false,
      "inputs": [],
      "name": "renounceOwnership",
      "outputs": [],
      "payable": false,
      "stateMutability": "nonpayable",
      "type": "function",
      "signature": "0x715018a6"
    },
    {
      "constant": true,
      "inputs": [],
      "name": "owner",
      "outputs": [
        {
          "name": "",
          "type": "address"
        }
      ],
      "payable": false,
      "stateMutability": "view",
      "type": "function",
      "signature": "0x8da5cb5b"
    },
    {
      "constant": true,
      "inputs": [],
      "name": "isOwner",
      "outputs": [
        {
          "name": "",
          "type": "bool"
        }
      ],
      "payable": false,
      "stateMutability": "view",
      "type": "function",
      "signature": "0x8f32d59b"
    },
    {
      "constant": true,
      "inputs": [
        {
          "name": "",
          "type": "address"
        }
      ],
      "name": "sponsorDepositBalance",
      "outputs": [
        {
          "name": "",
          "type": "uint256"
        }
      ],
      "payable": false,
      "stateMutability": "view",
      "type": "function",
      "signature": "0xd0b23031"
    },
    {
      "constant": false,
      "inputs": [
        {
          "name": "newOwner",
          "type": "address"
        }
      ],
      "name": "transferOwnership",
      "outputs": [],
      "payable": false,
      "stateMutability": "nonpayable",
      "type": "function",
      "signature": "0xf2fde38b"
    },
    {
      "inputs": [
        {
          "name": "_token",
          "type": "address"
        }
      ],
      "payable": false,
      "stateMutability": "nonpayable",
      "type": "constructor",
      "signature": "constructor"
    },
    {
      "anonymous": false,
      "inputs": [
        {
          "indexed": false,
          "name": "sponsor",
          "type": "address"
        },
        {
          "indexed": false,
          "name": "depositAmount",
          "type": "uint256"
        }
      ],
      "name": "newDeposit",
      "type": "event",
      "signature": "0xb852e2e011cc5f1a909361fc2aeee1b2c4fa840300139b0b85f5e08a50898c62"
    },
    {
      "anonymous": false,
      "inputs": [
        {
          "indexed": false,
          "name": "sponsor",
          "type": "address"
        },
        {
          "indexed": false,
          "name": "withdrawAmount",
          "type": "uint256"
        }
      ],
      "name": "newWithdrawPrincipal",
      "type": "event",
      "signature": "0x9b7a0c88d12032f2c6eea238303e4d93bf0daea574cd692cfff0d9a24f9b6ef7"
    },
    {
      "anonymous": false,
      "inputs": [
        {
          "indexed": false,
          "name": "sponsor",
          "type": "address"
        },
        {
          "indexed": false,
          "name": "withdrawAmount",
          "type": "uint256"
        }
      ],
      "name": "newWithdrawInterest",
      "type": "event",
      "signature": "0xe1ba1bd77d6d1c3ad8143c2704990a0b79b32494fcaaf272b72ae766b5342edd"
    },
    {
      "anonymous": false,
      "inputs": [
        {
          "indexed": false,
          "name": "fromCDP",
          "type": "address"
        },
        {
          "indexed": false,
          "name": "totalAmount",
          "type": "uint256"
        }
      ],
      "name": "debtReturnedToPool",
      "type": "event",
      "signature": "0x9a68d8ced13518c2338adab89f29f43329ff282d4624cd6a8a0c5ceb5d9b8394"
    },
    {
      "anonymous": false,
      "inputs": [
        {
          "indexed": true,
          "name": "previousOwner",
          "type": "address"
        },
        {
          "indexed": true,
          "name": "newOwner",
          "type": "address"
        }
      ],
      "name": "OwnershipTransferred",
      "type": "event",
      "signature": "0x8be0079c531659141344cd1fd0a4f28419497f9722a3daafe3b4186f6b6457e0"
    },
    {
      "constant": false,
      "inputs": [
        {
          "name": "_depositAmount",
          "type": "uint256"
        }
      ],
      "name": "deposit",
      "outputs": [],
      "payable": false,
      "stateMutability": "nonpayable",
      "type": "function",
      "signature": "0xb6b55f25"
    },
    {
      "constant": true,
      "inputs": [],
      "name": "balanceOfContract",
      "outputs": [
        {
          "name": "",
          "type": "uint256"
        }
      ],
      "payable": false,
      "stateMutability": "view",
      "type": "function",
      "signature": "0xe6c7c456"
    },
    {
      "constant": false,
      "inputs": [],
      "name": "withdraw",
      "outputs": [],
      "payable": false,
      "stateMutability": "nonpayable",
      "type": "function",
      "signature": "0x3ccfd60b"
    },
    {
      "constant": false,
      "inputs": [
        {
          "name": "_approvePaymentAmount",
          "type": "uint256"
        }
      ],
      "name": "approvePayment",
      "outputs": [],
      "payable": false,
      "stateMutability": "nonpayable",
      "type": "function",
      "signature": "0xde14c818"
    },
    {
      "constant": false,
      "inputs": [
        {
          "name": "_principalAmount",
          "type": "uint256"
        },
        {
          "name": "_interestAmount",
          "type": "uint256"
        }
      ],
      "name": "returnDebt",
      "outputs": [],
      "payable": false,
      "stateMutability": "nonpayable",
      "type": "function",
      "signature": "0x49d88e8c"
    },
    {
      "constant": false,
      "inputs": [
        {
          "name": "_newCoolDownTime",
          "type": "uint256"
        }
      ],
      "name": "changeCoolDownTime",
      "outputs": [],
      "payable": false,
      "stateMutability": "nonpayable",
      "type": "function",
      "signature": "0xaca7207a"
    },
    {
      "constant": true,
      "inputs": [],
      "name": "checkUserTokenBalance",
      "outputs": [
        {
          "name": "",
          "type": "uint256"
        }
      ],
      "payable": false,
      "stateMutability": "view",
      "type": "function",
      "signature": "0x25826334"
    },
    {
      "constant": true,
      "inputs": [],
      "name": "checkContractTokenBalance",
      "outputs": [
        {
          "name": "",
          "type": "uint256"
        }
      ],
      "payable": false,
      "stateMutability": "view",
      "type": "function",
      "signature": "0xefe42853"
    },
    {
      "constant": true,
      "inputs": [
        {
          "name": "_owner",
          "type": "address"
        },
        {
          "name": "_spender",
          "type": "address"
        }
      ],
      "name": "tokenAllowance",
      "outputs": [
        {
          "name": "",
          "type": "uint256"
        }
      ],
      "payable": false,
      "stateMutability": "view",
      "type": "function",
      "signature": "0x119c1c23"
    },
    {
      "constant": false,
      "inputs": [
        {
          "name": "_from",
          "type": "address"
        },
        {
          "name": "_to",
          "type": "address"
        },
        {
          "name": "_value",
          "type": "uint256"
        }
      ],
      "name": "tokenTransferFrom",
      "outputs": [
        {
          "name": "",
          "type": "bool"
        }
      ],
      "payable": false,
      "stateMutability": "nonpayable",
      "type": "function",
      "signature": "0x961974ba"
    },
    {
      "constant": false,
      "inputs": [
        {
          "name": "_to",
          "type": "address"
        },
        {
          "name": "_amount",
          "type": "uint256"
        }
      ],
      "name": "tokenTransfer",
      "outputs": [
        {
          "name": "",
          "type": "bool"
        }
      ],
      "payable": false,
      "stateMutability": "nonpayable",
      "type": "function",
      "signature": "0x68cdafe6"
    },
    {
      "constant": false,
      "inputs": [
        {
          "name": "_to",
          "type": "address"
        },
        {
          "name": "_amount",
          "type": "uint256"
        }
      ],
      "name": "tokenApprove",
      "outputs": [
        {
          "name": "",
          "type": "bool"
        }
      ],
      "payable": false,
      "stateMutability": "nonpayable",
      "type": "function",
      "signature": "0x0cd689f5"
    }
  ],
  "bytecode": "0x60806040526203f48060055534801561001757600080fd5b5060405160208061195283398101806040528101908080519060200190929190505050336000806101000a81548173ffffffffffffffffffffffffffffffffffffffff021916908373ffffffffffffffffffffffffffffffffffffffff1602179055506000809054906101000a900473ffffffffffffffffffffffffffffffffffffffff1673ffffffffffffffffffffffffffffffffffffffff16600073ffffffffffffffffffffffffffffffffffffffff167f8be0079c531659141344cd1fd0a4f28419497f9722a3daafe3b4186f6b6457e060405160405180910390a380600660006101000a81548173ffffffffffffffffffffffffffffffffffffffff021916908373ffffffffffffffffffffffffffffffffffffffff160217905550600660009054906101000a900473ffffffffffffffffffffffffffffffffffffffff16600760006101000a81548173ffffffffffffffffffffffffffffffffffffffff021916908373ffffffffffffffffffffffffffffffffffffffff160217905550506117a8806101aa6000396000f300608060405260043610610107576000357c0100000000000000000000000000000000000000000000000000000000900463ffffffff16806309ba38ac1461010c5780630cd689f51461016f578063119c1c23146101d4578063258263341461024b578063313ce567146102765780633ccfd60b146102a757806349d88e8c146102be57806368cdafe6146102f5578063715018a61461035a5780638da5cb5b146103715780638f32d59b146103c8578063961974ba146103f7578063aca7207a1461047c578063b6b55f25146104a9578063d0b23031146104d6578063de14c8181461052d578063e6c7c4561461055a578063efe4285314610585578063f2fde38b146105b0575b600080fd5b34801561011857600080fd5b5061014d600480360381019080803573ffffffffffffffffffffffffffffffffffffffff1690602001909291905050506105f3565b604051808263ffffffff1663ffffffff16815260200191505060405180910390f35b34801561017b57600080fd5b506101ba600480360381019080803573ffffffffffffffffffffffffffffffffffffffff16906020019092919080359060200190929190505050610616565b604051808215151515815260200191505060405180910390f35b3480156101e057600080fd5b50610235600480360381019080803573ffffffffffffffffffffffffffffffffffffffff169060200190929190803573ffffffffffffffffffffffffffffffffffffffff16906020019092919050505061071f565b6040518082815260200191505060405180910390f35b34801561025757600080fd5b50610260610855565b6040518082815260200191505060405180910390f35b34801561028257600080fd5b5061028b610954565b604051808260ff1660ff16815260200191505060405180910390f35b3480156102b357600080fd5b506102bc610959565b005b3480156102ca57600080fd5b506102f36004803603810190808035906020019092919080359060200190929190505050610d50565b005b34801561030157600080fd5b50610340600480360381019080803573ffffffffffffffffffffffffffffffffffffffff16906020019092919080359060200190929190505050610e09565b604051808215151515815260200191505060405180910390f35b34801561036657600080fd5b5061036f610f12565b005b34801561037d57600080fd5b50610386610fe4565b604051808273ffffffffffffffffffffffffffffffffffffffff1673ffffffffffffffffffffffffffffffffffffffff16815260200191505060405180910390f35b3480156103d457600080fd5b506103dd61100d565b604051808215151515815260200191505060405180910390f35b34801561040357600080fd5b50610462600480360381019080803573ffffffffffffffffffffffffffffffffffffffff169060200190929190803573ffffffffffffffffffffffffffffffffffffffff16906020019092919080359060200190929190505050611064565b604051808215151515815260200191505060405180910390f35b34801561048857600080fd5b506104a7600480360381019080803590602001909291905050506111a2565b005b3480156104b557600080fd5b506104d4600480360381019080803590602001909291905050506111bf565b005b3480156104e257600080fd5b50610517600480360381019080803573ffffffffffffffffffffffffffffffffffffffff16906020019092919050505061134b565b6040518082815260200191505060405180910390f35b34801561053957600080fd5b5061055860048036038101908080359060200190929190505050611363565b005b34801561056657600080fd5b5061056f611490565b6040518082815260200191505060405180910390f35b34801561059157600080fd5b5061059a6114c2565b6040518082815260200191505060405180910390f35b3480156105bc57600080fd5b506105f1600480360381019080803573ffffffffffffffffffffffffffffffffffffffff1690602001909291905050506115c1565b005b60026020528060005260406000206000915054906101000a900463ffffffff1681565b6000600760009054906101000a900473ffffffffffffffffffffffffffffffffffffffff1673ffffffffffffffffffffffffffffffffffffffff1663095ea7b384846040518363ffffffff167c0100000000000000000000000000000000000000000000000000000000028152600401808373ffffffffffffffffffffffffffffffffffffffff1673ffffffffffffffffffffffffffffffffffffffff16815260200182815260200192505050602060405180830381600087803b1580156106dd57600080fd5b505af11580156106f1573d6000803e3d6000fd5b505050506040513d602081101561070757600080fd5b81019080805190602001909291905050505092915050565b6000600760009054906101000a900473ffffffffffffffffffffffffffffffffffffffff1673ffffffffffffffffffffffffffffffffffffffff1663dd62ed3e84846040518363ffffffff167c0100000000000000000000000000000000000000000000000000000000028152600401808373ffffffffffffffffffffffffffffffffffffffff1673ffffffffffffffffffffffffffffffffffffffff1681526020018273ffffffffffffffffffffffffffffffffffffffff1673ffffffffffffffffffffffffffffffffffffffff16815260200192505050602060405180830381600087803b15801561081257600080fd5b505af1158015610826573d6000803e3d6000fd5b505050506040513d602081101561083c57600080fd5b8101908080519060200190929190505050905092915050565b6000600760009054906101000a900473ffffffffffffffffffffffffffffffffffffffff1673ffffffffffffffffffffffffffffffffffffffff166370a08231336040518263ffffffff167c0100000000000000000000000000000000000000000000000000000000028152600401808273ffffffffffffffffffffffffffffffffffffffff1673ffffffffffffffffffffffffffffffffffffffff168152602001915050602060405180830381600087803b15801561091457600080fd5b505af1158015610928573d6000803e3d6000fd5b505050506040513d602081101561093e57600080fd5b8101908080519060200190929190505050905090565b601281565b600080600080600160003373ffffffffffffffffffffffffffffffffffffffff1673ffffffffffffffffffffffffffffffffffffffff168152602001908152602001600020541115156109ab57600080fd5b6109b36115e0565b15156109be57600080fd5b600354600160003373ffffffffffffffffffffffffffffffffffffffff1673ffffffffffffffffffffffffffffffffffffffff16815260200190815260200160002054811515610a0a57fe5b04600454029250600160003373ffffffffffffffffffffffffffffffffffffffff1673ffffffffffffffffffffffffffffffffffffffff1681526020019081526020016000205483019150600760009054906101000a900473ffffffffffffffffffffffffffffffffffffffff1673ffffffffffffffffffffffffffffffffffffffff166370a08231306040518263ffffffff167c0100000000000000000000000000000000000000000000000000000000028152600401808273ffffffffffffffffffffffffffffffffffffffff1673ffffffffffffffffffffffffffffffffffffffff168152602001915050602060405180830381600087803b158015610b1257600080fd5b505af1158015610b26573d6000803e3d6000fd5b505050506040513d6020811015610b3c57600080fd5b810190808051906020019092919050505090506000610b64838361164090919063ffffffff16565b10151515610b7157600080fd5b6000600160003373ffffffffffffffffffffffffffffffffffffffff1673ffffffffffffffffffffffffffffffffffffffff16815260200190815260200160002081905550610c0a600160003373ffffffffffffffffffffffffffffffffffffffff1673ffffffffffffffffffffffffffffffffffffffff1681526020019081526020016000205460035461164090919063ffffffff16565b600381905550610c258360045461164090919063ffffffff16565b600481905550610c353383610e09565b507f9b7a0c88d12032f2c6eea238303e4d93bf0daea574cd692cfff0d9a24f9b6ef733600160003373ffffffffffffffffffffffffffffffffffffffff1673ffffffffffffffffffffffffffffffffffffffff16815260200190815260200160002054604051808373ffffffffffffffffffffffffffffffffffffffff1673ffffffffffffffffffffffffffffffffffffffff1681526020018281526020019250505060405180910390a17fe1ba1bd77d6d1c3ad8143c2704990a0b79b32494fcaaf272b72ae766b5342edd3384604051808373ffffffffffffffffffffffffffffffffffffffff1673ffffffffffffffffffffffffffffffffffffffff1681526020018281526020019250505060405180910390a1505050565b60008183019050610d62333083611064565b50610d788360035461166190919063ffffffff16565b600381905550610d938260045461166190919063ffffffff16565b6004819055507f9a68d8ced13518c2338adab89f29f43329ff282d4624cd6a8a0c5ceb5d9b83943382604051808373ffffffffffffffffffffffffffffffffffffffff1673ffffffffffffffffffffffffffffffffffffffff1681526020018281526020019250505060405180910390a1505050565b6000600760009054906101000a900473ffffffffffffffffffffffffffffffffffffffff1673ffffffffffffffffffffffffffffffffffffffff1663a9059cbb84846040518363ffffffff167c0100000000000000000000000000000000000000000000000000000000028152600401808373ffffffffffffffffffffffffffffffffffffffff1673ffffffffffffffffffffffffffffffffffffffff16815260200182815260200192505050602060405180830381600087803b158015610ed057600080fd5b505af1158015610ee4573d6000803e3d6000fd5b505050506040513d6020811015610efa57600080fd5b81019080805190602001909291905050505092915050565b610f1a61100d565b1515610f2557600080fd5b600073ffffffffffffffffffffffffffffffffffffffff166000809054906101000a900473ffffffffffffffffffffffffffffffffffffffff1673ffffffffffffffffffffffffffffffffffffffff167f8be0079c531659141344cd1fd0a4f28419497f9722a3daafe3b4186f6b6457e060405160405180910390a360008060006101000a81548173ffffffffffffffffffffffffffffffffffffffff021916908373ffffffffffffffffffffffffffffffffffffffff160217905550565b60008060009054906101000a900473ffffffffffffffffffffffffffffffffffffffff16905090565b60008060009054906101000a900473ffffffffffffffffffffffffffffffffffffffff1673ffffffffffffffffffffffffffffffffffffffff163373ffffffffffffffffffffffffffffffffffffffff1614905090565b6000600760009054906101000a900473ffffffffffffffffffffffffffffffffffffffff1673ffffffffffffffffffffffffffffffffffffffff166323b872dd8585856040518463ffffffff167c0100000000000000000000000000000000000000000000000000000000028152600401808473ffffffffffffffffffffffffffffffffffffffff1673ffffffffffffffffffffffffffffffffffffffff1681526020018373ffffffffffffffffffffffffffffffffffffffff1673ffffffffffffffffffffffffffffffffffffffff1681526020018281526020019350505050602060405180830381600087803b15801561115f57600080fd5b505af1158015611173573d6000803e3d6000fd5b505050506040513d602081101561118957600080fd5b8101908080519060200190929190505050509392505050565b6111aa61100d565b15156111b557600080fd5b8060058190555050565b6111ca333083611064565b506111e08160035461166190919063ffffffff16565b60038190555061123881600160003373ffffffffffffffffffffffffffffffffffffffff1673ffffffffffffffffffffffffffffffffffffffff1681526020019081526020016000205461166190919063ffffffff16565b600160003373ffffffffffffffffffffffffffffffffffffffff1673ffffffffffffffffffffffffffffffffffffffff168152602001908152602001600020819055507fb852e2e011cc5f1a909361fc2aeee1b2c4fa840300139b0b85f5e08a50898c623382604051808373ffffffffffffffffffffffffffffffffffffffff1673ffffffffffffffffffffffffffffffffffffffff1681526020018281526020019250505060405180910390a16005544201600260003373ffffffffffffffffffffffffffffffffffffffff1673ffffffffffffffffffffffffffffffffffffffff16815260200190815260200160002060006101000a81548163ffffffff021916908363ffffffff16021790555050565b60016020528060005260406000206000915090505481565b6000600760009054906101000a900473ffffffffffffffffffffffffffffffffffffffff1673ffffffffffffffffffffffffffffffffffffffff166370a08231306040518263ffffffff167c0100000000000000000000000000000000000000000000000000000000028152600401808273ffffffffffffffffffffffffffffffffffffffff1673ffffffffffffffffffffffffffffffffffffffff168152602001915050602060405180830381600087803b15801561142257600080fd5b505af1158015611436573d6000803e3d6000fd5b505050506040513d602081101561144c57600080fd5b810190808051906020019092919050505090506000611474838361164090919063ffffffff16565b1015151561148157600080fd5b61148b3383610616565b505050565b600061149a61100d565b15156114a557600080fd5b3073ffffffffffffffffffffffffffffffffffffffff1631905090565b6000600760009054906101000a900473ffffffffffffffffffffffffffffffffffffffff1673ffffffffffffffffffffffffffffffffffffffff166370a08231306040518263ffffffff167c0100000000000000000000000000000000000000000000000000000000028152600401808273ffffffffffffffffffffffffffffffffffffffff1673ffffffffffffffffffffffffffffffffffffffff168152602001915050602060405180830381600087803b15801561158157600080fd5b505af1158015611595573d6000803e3d6000fd5b505050506040513d60208110156115ab57600080fd5b8101908080519060200190929190505050905090565b6115c961100d565b15156115d457600080fd5b6115dd81611682565b50565b600042600260003373ffffffffffffffffffffffffffffffffffffffff1673ffffffffffffffffffffffffffffffffffffffff16815260200190815260200160002060009054906101000a900463ffffffff1663ffffffff161115905090565b60008083831115151561165257600080fd5b82840390508091505092915050565b600080828401905083811015151561167857600080fd5b8091505092915050565b600073ffffffffffffffffffffffffffffffffffffffff168173ffffffffffffffffffffffffffffffffffffffff16141515156116be57600080fd5b8073ffffffffffffffffffffffffffffffffffffffff166000809054906101000a900473ffffffffffffffffffffffffffffffffffffffff1673ffffffffffffffffffffffffffffffffffffffff167f8be0079c531659141344cd1fd0a4f28419497f9722a3daafe3b4186f6b6457e060405160405180910390a3806000806101000a81548173ffffffffffffffffffffffffffffffffffffffff021916908373ffffffffffffffffffffffffffffffffffffffff160217905550505600a165627a7a72305820a8d13d30f6b699594939d3c1a9e189301383c470cbb85cb137d71ceab1987c640029",
  "source": "// originally written by brandon\npragma solidity ^0.4.24;\n\nimport 'openzeppelin-solidity/contracts/math/SafeMath.sol';\nimport 'openzeppelin-solidity/contracts/ownership/Ownable.sol';\n\ncontract Sponsor is Ownable{\n  using SafeMath for uint;\n\n  event newDeposit(address sponsor, uint depositAmount);\n  event newWithdrawPrincipal(address sponsor, uint withdrawAmount);\n  event newWithdrawInterest(address sponsor, uint withdrawAmount);\n  event debtReturnedToPool(address fromCDP, uint totalAmount);\n\n\n  mapping (address => uint) public sponsorDepositBalance;\n  mapping (address => uint32) public readyTime;\n  //mapping (address => bool) public isReady;\n\n  uint totalPrinciple;\n  uint totalInterest;\n  uint coolDownTime = 3 days;\n  uint8 public constant decimals = 18;\n  //_tokens * (10 ** uint256(decimals))\n\n  address tokenContractAddress;\n  DaiToken contractToken;\n\n  constructor(address _token) public {\n    tokenContractAddress = _token;\n    contractToken = DaiToken(tokenContractAddress);\n  }\n\n  //Sponsor Contract Address: 0xbbf289d846208c16edc8474705c748aff07732db\n  //My Address: 0xca35b7d915458ef540ade6068dfe2f44e8fa733c\n  //1000000000000000000000000\n\n\n  modifier onlySafeCDP() {\n    //require(safeCDPSet? == True);\n    _;\n  }\n\n  //Sponsor deposits funds into the pool\n  function deposit(uint _depositAmount) public {\n    //uint tokenAllowanceAmount = tokenAllowance(msg.sender, address(this));\n    //require(tokenAllowanceAmount >= _depositAmount);\n    tokenTransferFrom(msg.sender,address(this), _depositAmount);\n    totalPrinciple = totalPrinciple.add(_depositAmount);\n    sponsorDepositBalance[msg.sender] = sponsorDepositBalance[msg.sender].add(_depositAmount);\n    emit newDeposit(msg.sender, _depositAmount);\n    readyTime[msg.sender] = uint32(now + coolDownTime);\n  }\n\n  function balanceOfContract() view external onlyOwner returns (uint) {\n    return address(this).balance;\n  }\n  function _isReady() internal view returns (bool) {\n      return (readyTime[msg.sender] <= now);\n  }\n\n\n  //Sponsor withdraws the amount\n  function withdraw() public {\n    //CAUTION => Example: 100 = totalInterest, from 10000 pool, sponsor deposited 1000\n    //100*1000/10000 = 10\n    //Sponsor can withdraw 1010\n    //After withdraw => totalInterest = 90, Pool = 9000, sponsor deposited = 0;\n    //Deposits again 1000 => totalInterest = 90, Pool = 10000, sponsor deposited = 1000;\n    //Withraws agains => 90*1000/10000 = 9\n    require(sponsorDepositBalance[msg.sender] > 0);\n    require(_isReady());\n    uint interest = totalInterest * (sponsorDepositBalance[msg.sender] / totalPrinciple);\n    uint totalWithdraw = interest + sponsorDepositBalance[msg.sender];\n    uint contractBalance = contractToken.balanceOf(this);\n    require(contractBalance.sub(totalWithdraw)>=0);\n    sponsorDepositBalance[msg.sender] = 0;\n    totalPrinciple = totalPrinciple.sub(sponsorDepositBalance[msg.sender]);\n    totalInterest = totalInterest.sub(interest);\n    tokenTransfer(msg.sender,totalWithdraw);\n    emit newWithdrawPrincipal(msg.sender, sponsorDepositBalance[msg.sender]);\n    emit newWithdrawInterest(msg.sender, interest);\n  }\n\n  //Keeper Allowance\n  function approvePayment(uint _approvePaymentAmount) public onlySafeCDP {\n    uint contractBalance = contractToken.balanceOf(this);\n    require(contractBalance.sub(_approvePaymentAmount)>=0);\n    tokenApprove(msg.sender,_approvePaymentAmount);\n  }\n\n  function returnDebt(uint _principalAmount, uint _interestAmount) public onlySafeCDP {\n    uint totalPayment = _principalAmount + _interestAmount;\n    tokenTransferFrom(msg.sender,address(this),totalPayment);\n    totalPrinciple = totalPrinciple.add(_principalAmount);\n    totalInterest = totalInterest.add(_interestAmount);\n    emit debtReturnedToPool(msg.sender, totalPayment);\n  }\n\n  function changeCoolDownTime(uint _newCoolDownTime) public onlyOwner {\n      coolDownTime = _newCoolDownTime;\n  }\n\n  function checkUserTokenBalance() public view returns(uint256){return contractToken.balanceOf(msg.sender);}\n  function checkContractTokenBalance() public view returns(uint256){return contractToken.balanceOf(this);}\n  function tokenAllowance(address _owner, address _spender) public view returns(uint){return contractToken.allowance(_owner, _spender);}\n  function tokenTransferFrom(address _from, address _to, uint256 _value) public returns(bool){contractToken.transferFrom(_from, _to, _value);}\n  function tokenTransfer(address _to, uint256 _amount) public onlySafeCDP returns(bool){contractToken.transfer(_to, _amount);}\n  function tokenApprove(address _to, uint256 _amount) public onlySafeCDP returns(bool){contractToken.approve(_to, _amount);}\n\n}\n\ncontract DaiToken {\n    function totalSupply() public pure returns (uint);\n    function balanceOf(address tokenOwner) public pure returns (uint balance);\n    function transfer(address _to, uint _value) public returns (bool success);\n    function allowance(address owner, address spender) public view returns (uint256);\n    function transferFrom(address from, address to, uint256 value) public returns (bool);\n    function approve(address spender, uint256 value) public returns (bool);\n    event Approval(address indexed owner,address indexed spender,uint256 value);\n    event Transfer(address indexed from, address indexed to, uint tokens);\n}",
  "sourcePath": "/Users/derek/code/ETHDenver/safe-cdp/safe-cdp/contracts/Sponsor.sol",
  "compiler": {
    "name": "solc",
    "version": "0.4.25+commit.59dbf8f1.Emscripten.clang"
  },
  "schemaVersion": "3.0.2",
  "updatedAt": "2019-02-17T12:12:56.739Z",
  "devdoc": {
    "methods": {
      "isOwner()": {
        "return": "true if `msg.sender` is the owner of the contract."
      },
      "owner()": {
        "return": "the address of the owner."
      },
      "renounceOwnership()": {
        "details": "Allows the current owner to relinquish control of the contract."
      },
      "transferOwnership(address)": {
        "details": "Allows the current owner to transfer control of the contract to a newOwner.",
        "params": {
          "newOwner": "The address to transfer ownership to."
        }
      }
    }
  },
  "userdoc": {
    "methods": {
      "renounceOwnership()": {
        "notice": "Renouncing to ownership will leave the contract without an owner. It will not be possible to call the functions with the `onlyOwner` modifier anymore."
      }
    }
  }
}